8=FIX.4.4|9=78|35=A|34=1|49=FIXGATEWAY|52=20250705-13:59:36.181|56=FIX_SIMULATOR|98=0|108=30|10=014|
8=FIX.4.4|9=78|35=A|34=1|49=FIX_SIMULATOR|52=20250705-13:59:36.233|56=FIXGATEWAY|98=0|108=30|10=012|
8=FIX.4.4|9=66|35=0|34=2|49=FIXGATEWAY|52=20250705-14:00:06.173|56=FIX_SIMULATOR|10=211|
8=FIX.4.4|9=66|35=0|34=2|49=FIX_SIMULATOR|52=20250705-14:00:07.047|56=FIXGATEWAY|10=212|
8=FIX.4.4|9=66|35=0|34=3|49=FIXGATEWAY|52=20250705-14:00:36.173|56=FIX_SIMULATOR|10=215|
8=FIX.4.4|9=66|35=0|34=3|49=FIX_SIMULATOR|52=20250705-14:00:37.047|56=FIXGATEWAY|10=216|
8=FIX.4.4|9=66|35=0|34=4|49=FIXGATEWAY|52=20250705-14:01:06.172|56=FIX_SIMULATOR|10=213|
8=FIX.4.4|9=66|35=0|34=4|49=FIX_SIMULATOR|52=20250705-14:01:07.047|56=FIXGATEWAY|10=215|
8=FIX.4.4|9=66|35=0|34=5|49=FIXGATEWAY|52=20250705-14:01:36.172|56=FIX_SIMULATOR|10=217|
8=FIX.4.4|9=66|35=0|34=5|49=FIX_SIMULATOR|52=20250705-14:01:37.047|56=FIXGATEWAY|10=219|
8=FIX.4.4|9=66|35=0|34=6|49=FIXGATEWAY|52=20250705-14:02:06.172|56=FIX_SIMULATOR|10=216|
8=FIX.4.4|9=66|35=0|34=6|49=FIX_SIMULATOR|52=20250705-14:02:07.047|56=FIXGATEWAY|10=218|
8=FIX.4.4|9=66|35=0|34=7|49=FIXGATEWAY|52=20250705-14:02:36.172|56=FIX_SIMULATOR|10=220|
8=FIX.4.4|9=66|35=0|34=7|49=FIX_SIMULATOR|52=20250705-14:02:37.047|56=FIXGATEWAY|10=222|
8=FIX.4.4|9=66|35=0|34=8|49=FIXGATEWAY|52=20250705-14:03:06.172|56=FIX_SIMULATOR|10=219|
8=FIX.4.4|9=66|35=0|34=8|49=FIX_SIMULATOR|52=20250705-14:03:07.047|56=FIXGATEWAY|10=221|
8=FIX.4.4|9=66|35=0|34=9|49=FIXGATEWAY|52=20250705-14:03:36.172|56=FIX_SIMULATOR|10=223|
8=FIX.4.4|9=66|35=0|34=9|49=FIX_SIMULATOR|52=20250705-14:03:37.047|56=FIXGATEWAY|10=225|
8=FIX.4.4|9=67|35=0|34=10|49=FIXGATEWAY|52=20250705-14:04:06.172|56=FIX_SIMULATOR|10=006|
8=FIX.4.4|9=67|35=0|34=10|49=FIX_SIMULATOR|52=20250705-14:04:07.047|56=FIXGATEWAY|10=008|
8=FIX.4.4|9=67|35=0|34=11|49=FIXGATEWAY|52=20250705-14:04:36.172|56=FIX_SIMULATOR|10=010|
8=FIX.4.4|9=67|35=0|34=11|49=FIX_SIMULATOR|52=20250705-14:04:37.047|56=FIXGATEWAY|10=012|
8=FIX.4.4|9=67|35=0|34=12|49=FIXGATEWAY|52=20250705-14:05:06.172|56=FIX_SIMULATOR|10=009|
8=FIX.4.4|9=67|35=0|34=12|49=FIX_SIMULATOR|52=20250705-14:05:07.047|56=FIXGATEWAY|10=011|
8=FIX.4.4|9=67|35=0|34=13|49=FIXGATEWAY|52=20250705-14:05:36.172|56=FIX_SIMULATOR|10=013|
8=FIX.4.4|9=67|35=0|34=13|49=FIX_SIMULATOR|52=20250705-14:05:37.047|56=FIXGATEWAY|10=015|
8=FIX.4.4|9=67|35=0|34=14|49=FIXGATEWAY|52=20250705-14:06:06.172|56=FIX_SIMULATOR|10=012|
8=FIX.4.4|9=67|35=0|34=14|49=FIX_SIMULATOR|52=20250705-14:06:07.047|56=FIXGATEWAY|10=014|
8=FIX.4.4|9=67|35=0|34=15|49=FIXGATEWAY|52=20250705-14:06:36.172|56=FIX_SIMULATOR|10=016|
8=FIX.4.4|9=67|35=0|34=15|49=FIX_SIMULATOR|52=20250705-14:06:37.047|56=FIXGATEWAY|10=018|
8=FIX.4.4|9=67|35=0|34=16|49=FIXGATEWAY|52=20250705-14:07:06.172|56=FIX_SIMULATOR|10=015|
8=FIX.4.4|9=67|35=0|34=16|49=FIX_SIMULATOR|52=20250705-14:07:07.047|56=FIXGATEWAY|10=017|
8=FIX.4.4|9=67|35=0|34=17|49=FIXGATEWAY|52=20250705-14:07:36.172|56=FIX_SIMULATOR|10=019|
8=FIX.4.4|9=67|35=0|34=17|49=FIX_SIMULATOR|52=20250705-14:07:37.047|56=FIXGATEWAY|10=021|
8=FIX.4.4|9=67|35=0|34=18|49=FIXGATEWAY|52=20250705-14:08:06.172|56=FIX_SIMULATOR|10=018|
8=FIX.4.4|9=67|35=0|34=18|49=FIX_SIMULATOR|52=20250705-14:08:07.047|56=FIXGATEWAY|10=020|
8=FIX.4.4|9=67|35=0|34=19|49=FIXGATEWAY|52=20250705-14:08:36.172|56=FIX_SIMULATOR|10=022|
8=FIX.4.4|9=67|35=0|34=19|49=FIX_SIMULATOR|52=20250705-14:08:37.047|56=FIXGATEWAY|10=024|
8=FIX.4.4|9=67|35=0|34=20|49=FIXGATEWAY|52=20250705-14:09:06.172|56=FIX_SIMULATOR|10=012|
8=FIX.4.4|9=67|35=0|34=20|49=FIX_SIMULATOR|52=20250705-14:09:07.047|56=FIXGATEWAY|10=014|
8=FIX.4.4|9=67|35=0|34=21|49=FIXGATEWAY|52=20250705-14:09:36.172|56=FIX_SIMULATOR|10=016|
8=FIX.4.4|9=67|35=0|34=21|49=FIX_SIMULATOR|52=20250705-14:09:37.047|56=FIXGATEWAY|10=018|
8=FIX.4.4|9=67|35=0|34=22|49=FIXGATEWAY|52=20250705-14:10:06.172|56=FIX_SIMULATOR|10=006|
8=FIX.4.4|9=67|35=0|34=22|49=FIX_SIMULATOR|52=20250705-14:10:07.047|56=FIXGATEWAY|10=008|
8=FIX.4.4|9=67|35=0|34=23|49=FIXGATEWAY|52=20250705-14:10:36.172|56=FIX_SIMULATOR|10=010|
8=FIX.4.4|9=67|35=0|34=23|49=FIX_SIMULATOR|52=20250705-14:10:37.047|56=FIXGATEWAY|10=012|
8=FIX.4.4|9=67|35=0|34=24|49=FIXGATEWAY|52=20250705-14:11:06.177|56=FIX_SIMULATOR|10=014|
8=FIX.4.4|9=67|35=0|34=24|49=FIX_SIMULATOR|52=20250705-14:11:07.047|56=FIXGATEWAY|10=011|
8=FIX.4.4|9=67|35=0|34=25|49=FIXGATEWAY|52=20250705-14:11:36.172|56=FIX_SIMULATOR|10=013|
8=FIX.4.4|9=67|35=0|34=25|49=FIX_SIMULATOR|52=20250705-14:11:37.047|56=FIXGATEWAY|10=015|
8=FIX.4.4|9=67|35=0|34=26|49=FIXGATEWAY|52=20250705-14:12:06.172|56=FIX_SIMULATOR|10=012|
8=FIX.4.4|9=67|35=0|34=26|49=FIX_SIMULATOR|52=20250705-14:12:07.047|56=FIXGATEWAY|10=014|
8=FIX.4.4|9=67|35=0|34=27|49=FIXGATEWAY|52=20250705-14:12:36.172|56=FIX_SIMULATOR|10=016|
8=FIX.4.4|9=67|35=0|34=27|49=FIX_SIMULATOR|52=20250705-14:12:37.047|56=FIXGATEWAY|10=018|
8=FIX.4.4|9=67|35=0|34=28|49=FIXGATEWAY|52=20250705-14:13:06.172|56=FIX_SIMULATOR|10=015|
8=FIX.4.4|9=67|35=0|34=28|49=FIX_SIMULATOR|52=20250705-14:13:07.047|56=FIXGATEWAY|10=017|
8=FIX.4.4|9=67|35=0|34=29|49=FIXGATEWAY|52=20250705-14:13:36.172|56=FIX_SIMULATOR|10=019|
8=FIX.4.4|9=67|35=0|34=29|49=FIX_SIMULATOR|52=20250705-14:13:37.047|56=FIXGATEWAY|10=021|
8=FIX.4.4|9=67|35=0|34=30|49=FIXGATEWAY|52=20250705-14:14:06.172|56=FIX_SIMULATOR|10=009|
8=FIX.4.4|9=67|35=0|34=30|49=FIX_SIMULATOR|52=20250705-14:14:07.047|56=FIXGATEWAY|10=011|
8=FIX.4.4|9=67|35=0|34=31|49=FIXGATEWAY|52=20250705-14:14:36.172|56=FIX_SIMULATOR|10=013|
8=FIX.4.4|9=67|35=0|34=31|49=FIX_SIMULATOR|52=20250705-14:14:37.047|56=FIXGATEWAY|10=015|
8=FIX.4.4|9=67|35=0|34=32|49=FIXGATEWAY|52=20250705-14:15:06.172|56=FIX_SIMULATOR|10=012|
8=FIX.4.4|9=67|35=0|34=32|49=FIX_SIMULATOR|52=20250705-14:15:07.047|56=FIXGATEWAY|10=014|
8=FIX.4.4|9=67|35=0|34=33|49=FIXGATEWAY|52=20250705-14:15:36.172|56=FIX_SIMULATOR|10=016|
8=FIX.4.4|9=67|35=0|34=33|49=FIX_SIMULATOR|52=20250705-14:15:37.047|56=FIXGATEWAY|10=018|
8=FIX.4.4|9=67|35=0|34=34|49=FIXGATEWAY|52=20250705-14:16:06.172|56=FIX_SIMULATOR|10=015|
8=FIX.4.4|9=67|35=0|34=34|49=FIX_SIMULATOR|52=20250705-14:16:07.047|56=FIXGATEWAY|10=017|
8=FIX.4.4|9=67|35=0|34=35|49=FIXGATEWAY|52=20250705-14:16:36.172|56=FIX_SIMULATOR|10=019|
8=FIX.4.4|9=67|35=0|34=35|49=FIX_SIMULATOR|52=20250705-14:16:37.047|56=FIXGATEWAY|10=021|
8=FIX.4.4|9=67|35=0|34=36|49=FIXGATEWAY|52=20250705-14:17:06.172|56=FIX_SIMULATOR|10=018|
8=FIX.4.4|9=67|35=0|34=36|49=FIX_SIMULATOR|52=20250705-14:17:07.047|56=FIXGATEWAY|10=020|
8=FIX.4.4|9=67|35=0|34=37|49=FIXGATEWAY|52=20250705-14:17:36.172|56=FIX_SIMULATOR|10=022|
8=FIX.4.4|9=67|35=0|34=37|49=FIX_SIMULATOR|52=20250705-14:17:37.047|56=FIXGATEWAY|10=024|
8=FIX.4.4|9=67|35=0|34=38|49=FIXGATEWAY|52=20250705-14:18:06.172|56=FIX_SIMULATOR|10=021|
8=FIX.4.4|9=67|35=0|34=38|49=FIX_SIMULATOR|52=20250705-14:18:07.047|56=FIXGATEWAY|10=023|
8=FIX.4.4|9=67|35=0|34=39|49=FIXGATEWAY|52=20250705-14:18:36.172|56=FIX_SIMULATOR|10=025|
8=FIX.4.4|9=67|35=0|34=39|49=FIX_SIMULATOR|52=20250705-14:18:37.047|56=FIXGATEWAY|10=027|
8=FIX.4.4|9=67|35=0|34=40|49=FIXGATEWAY|52=20250705-14:19:06.172|56=FIX_SIMULATOR|10=015|
8=FIX.4.4|9=67|35=0|34=40|49=FIX_SIMULATOR|52=20250705-14:19:07.047|56=FIXGATEWAY|10=017|
8=FIX.4.4|9=67|35=0|34=41|49=FIXGATEWAY|52=20250705-14:19:36.172|56=FIX_SIMULATOR|10=019|
8=FIX.4.4|9=67|35=0|34=41|49=FIX_SIMULATOR|52=20250705-14:19:37.047|56=FIXGATEWAY|10=021|
8=FIX.4.4|9=67|35=0|34=42|49=FIXGATEWAY|52=20250705-14:20:06.172|56=FIX_SIMULATOR|10=009|
8=FIX.4.4|9=67|35=0|34=42|49=FIX_SIMULATOR|52=20250705-14:20:07.047|56=FIXGATEWAY|10=011|
8=FIX.4.4|9=67|35=0|34=43|49=FIXGATEWAY|52=20250705-14:20:36.172|56=FIX_SIMULATOR|10=013|
8=FIX.4.4|9=67|35=0|34=43|49=FIX_SIMULATOR|52=20250705-14:20:37.047|56=FIXGATEWAY|10=015|
8=FIX.4.4|9=67|35=0|34=44|49=FIXGATEWAY|52=20250705-14:21:06.172|56=FIX_SIMULATOR|10=012|
8=FIX.4.4|9=67|35=0|34=44|49=FIX_SIMULATOR|52=20250705-14:21:07.047|56=FIXGATEWAY|10=014|
8=FIX.4.4|9=67|35=0|34=45|49=FIXGATEWAY|52=20250705-14:21:36.172|56=FIX_SIMULATOR|10=016|
8=FIX.4.4|9=67|35=0|34=45|49=FIX_SIMULATOR|52=20250705-14:21:37.047|56=FIXGATEWAY|10=018|
8=FIX.4.4|9=67|35=0|34=46|49=FIXGATEWAY|52=20250705-14:22:06.172|56=FIX_SIMULATOR|10=015|
8=FIX.4.4|9=67|35=0|34=46|49=FIX_SIMULATOR|52=20250705-14:22:07.047|56=FIXGATEWAY|10=017|
8=FIX.4.4|9=67|35=0|34=47|49=FIXGATEWAY|52=20250705-14:22:36.172|56=FIX_SIMULATOR|10=019|
8=FIX.4.4|9=67|35=0|34=47|49=FIX_SIMULATOR|52=20250705-14:22:37.047|56=FIXGATEWAY|10=021|
8=FIX.4.4|9=67|35=0|34=48|49=FIXGATEWAY|52=20250705-14:23:06.172|56=FIX_SIMULATOR|10=018|
8=FIX.4.4|9=67|35=0|34=48|49=FIX_SIMULATOR|52=20250705-14:23:07.047|56=FIXGATEWAY|10=020|
8=FIX.4.4|9=67|35=0|34=49|49=FIXGATEWAY|52=20250705-14:23:36.172|56=FIX_SIMULATOR|10=022|
8=FIX.4.4|9=67|35=0|34=49|49=FIX_SIMULATOR|52=20250705-14:23:37.047|56=FIXGATEWAY|10=024|
8=FIX.4.4|9=67|35=0|34=50|49=FIXGATEWAY|52=20250705-14:24:06.172|56=FIX_SIMULATOR|10=012|
8=FIX.4.4|9=67|35=0|34=50|49=FIX_SIMULATOR|52=20250705-14:24:07.047|56=FIXGATEWAY|10=014|
8=FIX.4.4|9=67|35=0|34=51|49=FIXGATEWAY|52=20250705-14:24:36.172|56=FIX_SIMULATOR|10=016|
8=FIX.4.4|9=67|35=0|34=51|49=FIX_SIMULATOR|52=20250705-14:24:37.047|56=FIXGATEWAY|10=018|
8=FIX.4.4|9=67|35=0|34=52|49=FIXGATEWAY|52=20250705-14:25:06.172|56=FIX_SIMULATOR|10=015|
8=FIX.4.4|9=67|35=0|34=52|49=FIX_SIMULATOR|52=20250705-14:25:07.047|56=FIXGATEWAY|10=017|
8=FIX.4.4|9=67|35=0|34=53|49=FIXGATEWAY|52=20250705-14:25:36.172|56=FIX_SIMULATOR|10=019|
8=FIX.4.4|9=67|35=0|34=53|49=FIX_SIMULATOR|52=20250705-14:25:37.047|56=FIXGATEWAY|10=021|
8=FIX.4.4|9=67|35=0|34=54|49=FIXGATEWAY|52=20250705-14:26:06.172|56=FIX_SIMULATOR|10=018|
8=FIX.4.4|9=67|35=0|34=54|49=FIX_SIMULATOR|52=20250705-14:26:07.047|56=FIXGATEWAY|10=020|
8=FIX.4.4|9=67|35=0|34=55|49=FIXGATEWAY|52=20250705-14:26:36.172|56=FIX_SIMULATOR|10=022|
8=FIX.4.4|9=67|35=0|34=55|49=FIX_SIMULATOR|52=20250705-14:26:37.047|56=FIXGATEWAY|10=024|
8=FIX.4.4|9=67|35=0|34=56|49=FIXGATEWAY|52=20250705-14:27:06.172|56=FIX_SIMULATOR|10=021|
8=FIX.4.4|9=67|35=0|34=56|49=FIX_SIMULATOR|52=20250705-14:27:07.047|56=FIXGATEWAY|10=023|
8=FIX.4.4|9=67|35=0|34=57|49=FIXGATEWAY|52=20250705-14:27:36.172|56=FIX_SIMULATOR|10=025|
8=FIX.4.4|9=67|35=0|34=57|49=FIX_SIMULATOR|52=20250705-14:27:37.047|56=FIXGATEWAY|10=027|
8=FIX.4.4|9=67|35=0|34=58|49=FIXGATEWAY|52=20250705-14:28:06.172|56=FIX_SIMULATOR|10=024|
8=FIX.4.4|9=67|35=0|34=58|49=FIX_SIMULATOR|52=20250705-14:28:07.047|56=FIXGATEWAY|10=026|
8=FIX.4.4|9=67|35=0|34=59|49=FIXGATEWAY|52=20250705-14:28:36.172|56=FIX_SIMULATOR|10=028|
8=FIX.4.4|9=67|35=0|34=59|49=FIX_SIMULATOR|52=20250705-14:28:37.047|56=FIXGATEWAY|10=030|
8=FIX.4.4|9=67|35=0|34=60|49=FIXGATEWAY|52=20250705-14:29:06.172|56=FIX_SIMULATOR|10=018|
8=FIX.4.4|9=67|35=0|34=60|49=FIX_SIMULATOR|52=20250705-14:29:07.047|56=FIXGATEWAY|10=020|
8=FIX.4.4|9=67|35=0|34=61|49=FIXGATEWAY|52=20250705-14:29:36.172|56=FIX_SIMULATOR|10=022|
8=FIX.4.4|9=67|35=0|34=61|49=FIX_SIMULATOR|52=20250705-14:29:37.047|56=FIXGATEWAY|10=024|
8=FIX.4.4|9=67|35=0|34=62|49=FIXGATEWAY|52=20250705-14:30:06.172|56=FIX_SIMULATOR|10=012|
8=FIX.4.4|9=67|35=0|34=62|49=FIX_SIMULATOR|52=20250705-14:30:07.047|56=FIXGATEWAY|10=014|
8=FIX.4.4|9=67|35=0|34=63|49=FIXGATEWAY|52=20250705-14:30:36.172|56=FIX_SIMULATOR|10=016|
8=FIX.4.4|9=67|35=0|34=63|49=FIX_SIMULATOR|52=20250705-14:30:37.047|56=FIXGATEWAY|10=018|
8=FIX.4.4|9=67|35=0|34=64|49=FIXGATEWAY|52=20250705-14:31:06.172|56=FIX_SIMULATOR|10=015|
8=FIX.4.4|9=67|35=0|34=64|49=FIX_SIMULATOR|52=20250705-14:31:07.047|56=FIXGATEWAY|10=017|
8=FIX.4.4|9=67|35=0|34=65|49=FIXGATEWAY|52=20250705-14:31:36.172|56=FIX_SIMULATOR|10=019|
8=FIX.4.4|9=67|35=0|34=65|49=FIX_SIMULATOR|52=20250705-14:31:37.047|56=FIXGATEWAY|10=021|
8=FIX.4.4|9=67|35=0|34=66|49=FIXGATEWAY|52=20250705-14:32:06.172|56=FIX_SIMULATOR|10=018|
8=FIX.4.4|9=67|35=0|34=66|49=FIX_SIMULATOR|52=20250705-14:32:07.047|56=FIXGATEWAY|10=020|
8=FIX.4.4|9=67|35=0|34=67|49=FIXGATEWAY|52=20250705-14:32:36.172|56=FIX_SIMULATOR|10=022|
8=FIX.4.4|9=67|35=0|34=67|49=FIX_SIMULATOR|52=20250705-14:32:37.047|56=FIXGATEWAY|10=024|
8=FIX.4.4|9=67|35=0|34=68|49=FIXGATEWAY|52=20250705-14:33:06.172|56=FIX_SIMULATOR|10=021|
8=FIX.4.4|9=67|35=0|34=68|49=FIX_SIMULATOR|52=20250705-14:33:07.047|56=FIXGATEWAY|10=023|
8=FIX.4.4|9=67|35=0|34=69|49=FIXGATEWAY|52=20250705-14:33:36.172|56=FIX_SIMULATOR|10=025|
8=FIX.4.4|9=67|35=0|34=69|49=FIX_SIMULATOR|52=20250705-14:33:37.047|56=FIXGATEWAY|10=027|
8=FIX.4.4|9=67|35=0|34=70|49=FIXGATEWAY|52=20250705-14:34:06.172|56=FIX_SIMULATOR|10=015|
8=FIX.4.4|9=67|35=0|34=70|49=FIX_SIMULATOR|52=20250705-14:34:07.047|56=FIXGATEWAY|10=017|
8=FIX.4.4|9=67|35=0|34=71|49=FIXGATEWAY|52=20250705-14:34:36.172|56=FIX_SIMULATOR|10=019|
8=FIX.4.4|9=67|35=0|34=71|49=FIX_SIMULATOR|52=20250705-14:34:37.047|56=FIXGATEWAY|10=021|
8=FIX.4.4|9=67|35=0|34=72|49=FIXGATEWAY|52=20250705-14:35:06.172|56=FIX_SIMULATOR|10=018|
8=FIX.4.4|9=67|35=0|34=72|49=FIX_SIMULATOR|52=20250705-14:35:07.047|56=FIXGATEWAY|10=020|
8=FIX.4.4|9=67|35=0|34=73|49=FIXGATEWAY|52=20250705-14:35:36.172|56=FIX_SIMULATOR|10=022|
8=FIX.4.4|9=67|35=0|34=73|49=FIX_SIMULATOR|52=20250705-14:35:37.047|56=FIXGATEWAY|10=024|
8=FIX.4.4|9=67|35=0|34=74|49=FIXGATEWAY|52=20250705-14:36:06.172|56=FIX_SIMULATOR|10=021|
8=FIX.4.4|9=67|35=0|34=74|49=FIX_SIMULATOR|52=20250705-14:36:07.047|56=FIXGATEWAY|10=023|
8=FIX.4.4|9=67|35=0|34=75|49=FIXGATEWAY|52=20250705-14:36:36.172|56=FIX_SIMULATOR|10=025|
8=FIX.4.4|9=67|35=0|34=75|49=FIX_SIMULATOR|52=20250705-14:36:37.047|56=FIXGATEWAY|10=027|
8=FIX.4.4|9=67|35=0|34=76|49=FIXGATEWAY|52=20250705-14:37:06.172|56=FIX_SIMULATOR|10=024|
8=FIX.4.4|9=67|35=0|34=76|49=FIX_SIMULATOR|52=20250705-14:37:07.047|56=FIXGATEWAY|10=026|
8=FIX.4.4|9=67|35=0|34=77|49=FIXGATEWAY|52=20250705-14:37:36.172|56=FIX_SIMULATOR|10=028|
8=FIX.4.4|9=67|35=0|34=77|49=FIX_SIMULATOR|52=20250705-14:37:37.047|56=FIXGATEWAY|10=030|
8=FIX.4.4|9=67|35=0|34=78|49=FIXGATEWAY|52=20250705-14:38:06.172|56=FIX_SIMULATOR|10=027|
8=FIX.4.4|9=67|35=0|34=78|49=FIX_SIMULATOR|52=20250705-14:38:07.047|56=FIXGATEWAY|10=029|
8=FIX.4.4|9=67|35=0|34=79|49=FIXGATEWAY|52=20250705-14:38:36.172|56=FIX_SIMULATOR|10=031|
8=FIX.4.4|9=67|35=0|34=79|49=FIX_SIMULATOR|52=20250705-14:38:37.047|56=FIXGATEWAY|10=033|
8=FIX.4.4|9=67|35=0|34=80|49=FIXGATEWAY|52=20250705-14:39:06.172|56=FIX_SIMULATOR|10=021|
8=FIX.4.4|9=67|35=0|34=80|49=FIX_SIMULATOR|52=20250705-14:39:07.047|56=FIXGATEWAY|10=023|
8=FIX.4.4|9=67|35=0|34=81|49=FIXGATEWAY|52=20250705-14:39:36.172|56=FIX_SIMULATOR|10=025|
8=FIX.4.4|9=67|35=0|34=81|49=FIX_SIMULATOR|52=20250705-14:39:37.047|56=FIXGATEWAY|10=027|
8=FIX.4.4|9=67|35=0|34=82|49=FIXGATEWAY|52=20250705-14:40:06.172|56=FIX_SIMULATOR|10=015|
8=FIX.4.4|9=67|35=0|34=82|49=FIX_SIMULATOR|52=20250705-14:40:07.047|56=FIXGATEWAY|10=017|
8=FIX.4.4|9=67|35=0|34=83|49=FIXGATEWAY|52=20250705-14:40:36.172|56=FIX_SIMULATOR|10=019|
8=FIX.4.4|9=67|35=0|34=83|49=FIX_SIMULATOR|52=20250705-14:40:37.047|56=FIXGATEWAY|10=021|
8=FIX.4.4|9=67|35=0|34=84|49=FIXGATEWAY|52=20250705-14:41:06.172|56=FIX_SIMULATOR|10=018|
8=FIX.4.4|9=67|35=0|34=84|49=FIX_SIMULATOR|52=20250705-14:41:07.047|56=FIXGATEWAY|10=020|
8=FIX.4.4|9=67|35=0|34=85|49=FIXGATEWAY|52=20250705-14:41:36.172|56=FIX_SIMULATOR|10=022|
8=FIX.4.4|9=67|35=0|34=85|49=FIX_SIMULATOR|52=20250705-14:41:37.047|56=FIXGATEWAY|10=024|
8=FIX.4.4|9=67|35=0|34=86|49=FIXGATEWAY|52=20250705-14:42:06.172|56=FIX_SIMULATOR|10=021|
8=FIX.4.4|9=67|35=0|34=86|49=FIX_SIMULATOR|52=20250705-14:42:07.047|56=FIXGATEWAY|10=023|
8=FIX.4.4|9=67|35=0|34=87|49=FIXGATEWAY|52=20250705-14:42:36.172|56=FIX_SIMULATOR|10=025|
8=FIX.4.4|9=67|35=0|34=87|49=FIX_SIMULATOR|52=20250705-14:42:37.047|56=FIXGATEWAY|10=027|
8=FIX.4.4|9=67|35=0|34=88|49=FIXGATEWAY|52=20250705-14:43:06.172|56=FIX_SIMULATOR|10=024|
8=FIX.4.4|9=67|35=0|34=88|49=FIX_SIMULATOR|52=20250705-14:43:07.047|56=FIXGATEWAY|10=026|
8=FIX.4.4|9=67|35=0|34=89|49=FIXGATEWAY|52=20250705-14:43:36.172|56=FIX_SIMULATOR|10=028|
8=FIX.4.4|9=67|35=0|34=89|49=FIX_SIMULATOR|52=20250705-14:43:37.047|56=FIXGATEWAY|10=030|
8=FIX.4.4|9=67|35=0|34=90|49=FIXGATEWAY|52=20250705-14:44:06.172|56=FIX_SIMULATOR|10=018|
8=FIX.4.4|9=67|35=0|34=90|49=FIX_SIMULATOR|52=20250705-14:44:07.047|56=FIXGATEWAY|10=020|
8=FIX.4.4|9=67|35=0|34=91|49=FIXGATEWAY|52=20250705-14:44:36.172|56=FIX_SIMULATOR|10=022|
8=FIX.4.4|9=67|35=0|34=91|49=FIX_SIMULATOR|52=20250705-14:44:37.047|56=FIXGATEWAY|10=024|
8=FIX.4.4|9=67|35=0|34=92|49=FIXGATEWAY|52=20250705-14:45:06.172|56=FIX_SIMULATOR|10=021|
8=FIX.4.4|9=67|35=0|34=92|49=FIX_SIMULATOR|52=20250705-14:45:07.047|56=FIXGATEWAY|10=023|
8=FIX.4.4|9=67|35=0|34=93|49=FIXGATEWAY|52=20250705-14:45:36.172|56=FIX_SIMULATOR|10=025|
8=FIX.4.4|9=67|35=0|34=93|49=FIX_SIMULATOR|52=20250705-14:45:37.047|56=FIXGATEWAY|10=027|
8=FIX.4.4|9=67|35=0|34=94|49=FIXGATEWAY|52=20250705-14:46:06.172|56=FIX_SIMULATOR|10=024|
8=FIX.4.4|9=67|35=0|34=94|49=FIX_SIMULATOR|52=20250705-14:46:07.047|56=FIXGATEWAY|10=026|
8=FIX.4.4|9=67|35=0|34=95|49=FIXGATEWAY|52=20250705-14:46:36.172|56=FIX_SIMULATOR|10=028|
8=FIX.4.4|9=67|35=0|34=95|49=FIX_SIMULATOR|52=20250705-14:46:37.047|56=FIXGATEWAY|10=030|
8=FIX.4.4|9=67|35=0|34=96|49=FIXGATEWAY|52=20250705-14:47:06.172|56=FIX_SIMULATOR|10=027|
8=FIX.4.4|9=67|35=0|34=96|49=FIX_SIMULATOR|52=20250705-14:47:07.047|56=FIXGATEWAY|10=029|
8=FIX.4.4|9=67|35=0|34=97|49=FIXGATEWAY|52=20250705-14:47:36.172|56=FIX_SIMULATOR|10=031|
8=FIX.4.4|9=67|35=0|34=97|49=FIX_SIMULATOR|52=20250705-14:47:37.047|56=FIXGATEWAY|10=033|
8=FIX.4.4|9=67|35=5|34=98|49=FIXGATEWAY|52=20250705-14:47:56.173|56=FIX_SIMULATOR|10=040|
8=FIX.4.4|9=67|35=5|34=98|49=FIX_SIMULATOR|52=20250705-14:47:56.174|56=FIXGATEWAY|10=041|
8=FIX.4.4|9=78|35=A|34=1|49=FIXGATEWAY|52=20250705-15:04:26.445|56=FIX_SIMULATOR|98=0|108=30|10=008|
8=FIX.4.4|9=78|35=A|34=1|49=FIX_SIMULATOR|52=20250705-15:04:26.489|56=FIXGATEWAY|98=0|108=30|10=016|
8=FIX.4.4|9=145|35=D|34=2|49=FIXGATEWAY|52=20250705-15:04:32.890|56=FIX_SIMULATOR|11=ALGO01_20250705-110432860_000001|21=1|54=1|55=TSLA|60=20250705-15:04:32.890|10=011|
8=FIX.4.4|9=124|35=3|34=2|49=FIX_SIMULATOR|52=20250705-15:04:32.913|56=FIXGATEWAY|45=2|58=Required tag missing, field=40|371=40|372=D|373=1|10=154|
8=FIX.4.4|9=152|35=D|34=3|49=FIXGATEWAY|52=20250705-15:04:32.979|56=FIX_SIMULATOR|11=ALGO01_20250705-110432975_000002|21=1|44=800|54=2|55=NVDA|60=20250705-15:04:32.978|10=085|
8=FIX.4.4|9=124|35=3|34=3|49=FIX_SIMULATOR|52=20250705-15:04:32.981|56=FIXGATEWAY|45=3|58=Required tag missing, field=40|371=40|372=D|373=1|10=161|
8=FIX.4.4|9=145|35=D|34=4|49=FIXGATEWAY|52=20250705-15:04:32.996|56=FIX_SIMULATOR|11=ALGO01_20250705-110432992_000003|21=1|54=2|55=AMZN|60=20250705-15:04:32.996|10=038|
8=FIX.4.4|9=124|35=3|34=4|49=FIX_SIMULATOR|52=20250705-15:04:33.000|56=FIXGATEWAY|45=4|58=Required tag missing, field=40|371=40|372=D|373=1|10=146|
8=FIX.4.4|9=152|35=D|34=5|49=FIXGATEWAY|52=20250705-15:04:33.019|56=FIX_SIMULATOR|11=ALGO01_20250705-110433014_000004|21=1|44=350|54=1|55=META|60=20250705-15:04:33.018|10=043|
8=FIX.4.4|9=124|35=3|34=5|49=FIX_SIMULATOR|52=20250705-15:04:33.022|56=FIXGATEWAY|45=5|58=Required tag missing, field=40|371=40|372=D|373=1|10=152|
8=FIX.4.4|9=66|35=0|34=6|49=FIXGATEWAY|52=20250705-15:05:03.435|56=FIX_SIMULATOR|10=219|
8=FIX.4.4|9=66|35=0|34=6|49=FIX_SIMULATOR|52=20250705-15:05:03.438|56=FIXGATEWAY|10=222|
8=FIX.4.4|9=66|35=0|34=7|49=FIXGATEWAY|52=20250705-15:05:33.434|56=FIX_SIMULATOR|10=222|
8=FIX.4.4|9=66|35=0|34=7|49=FIX_SIMULATOR|52=20250705-15:05:33.437|56=FIXGATEWAY|10=225|
8=FIX.4.4|9=66|35=0|34=8|49=FIXGATEWAY|52=20250705-15:06:03.434|56=FIX_SIMULATOR|10=221|
8=FIX.4.4|9=66|35=0|34=8|49=FIX_SIMULATOR|52=20250705-15:06:03.439|56=FIXGATEWAY|10=226|
8=FIX.4.4|9=66|35=0|34=9|49=FIXGATEWAY|52=20250705-15:06:33.435|56=FIX_SIMULATOR|10=226|
8=FIX.4.4|9=66|35=0|34=9|49=FIX_SIMULATOR|52=20250705-15:06:33.440|56=FIXGATEWAY|10=222|
8=FIX.4.4|9=67|35=0|34=10|49=FIXGATEWAY|52=20250705-15:07:03.434|56=FIX_SIMULATOR|10=008|
8=FIX.4.4|9=67|35=0|34=10|49=FIX_SIMULATOR|52=20250705-15:07:03.438|56=FIXGATEWAY|10=012|
8=FIX.4.4|9=67|35=0|34=11|49=FIXGATEWAY|52=20250705-15:07:33.434|56=FIX_SIMULATOR|10=012|
8=FIX.4.4|9=67|35=0|34=11|49=FIX_SIMULATOR|52=20250705-15:07:33.437|56=FIXGATEWAY|10=015|
8=FIX.4.4|9=67|35=0|34=12|49=FIXGATEWAY|52=20250705-15:08:03.434|56=FIX_SIMULATOR|10=011|
8=FIX.4.4|9=67|35=0|34=12|49=FIX_SIMULATOR|52=20250705-15:08:03.439|56=FIXGATEWAY|10=016|
8=FIX.4.4|9=67|35=0|34=13|49=FIXGATEWAY|52=20250705-15:08:33.434|56=FIX_SIMULATOR|10=015|
8=FIX.4.4|9=67|35=0|34=13|49=FIX_SIMULATOR|52=20250705-15:08:33.437|56=FIXGATEWAY|10=018|
8=FIX.4.4|9=67|35=0|34=14|49=FIXGATEWAY|52=20250705-15:09:03.434|56=FIX_SIMULATOR|10=014|
8=FIX.4.4|9=67|35=0|34=14|49=FIX_SIMULATOR|52=20250705-15:09:03.439|56=FIXGATEWAY|10=019|
8=FIX.4.4|9=67|35=0|34=15|49=FIXGATEWAY|52=20250705-15:09:33.434|56=FIX_SIMULATOR|10=018|
8=FIX.4.4|9=67|35=0|34=15|49=FIX_SIMULATOR|52=20250705-15:09:33.437|56=FIXGATEWAY|10=021|
8=FIX.4.4|9=67|35=5|34=16|49=FIXGATEWAY|52=20250705-15:09:37.435|56=FIX_SIMULATOR|10=029|
8=FIX.4.4|9=67|35=5|34=16|49=FIX_SIMULATOR|52=20250705-15:09:37.440|56=FIXGATEWAY|10=025|
8=FIX.4.4|9=78|35=A|34=1|49=FIXGATEWAY|52=20250705-15:10:58.426|56=FIX_SIMULATOR|98=0|108=30|10=009|
8=FIX.4.4|9=117|35=5|34=17|49=FIX_SIMULATOR|52=20250705-15:10:58.480|56=FIXGATEWAY|58=MsgSeqNum too low, expecting 17 but received 1|10=018|
8=FIX.4.4|9=66|35=5|34=2|49=FIXGATEWAY|52=20250705-15:10:58.492|56=FIX_SIMULATOR|10=229|
8=FIX.4.4|9=78|35=A|34=1|49=FIXGATEWAY|52=20250705-15:11:59.093|56=FIX_SIMULATOR|98=0|108=30|10=011|
8=FIX.4.4|9=117|35=5|34=18|49=FIX_SIMULATOR|52=20250705-15:11:59.130|56=FIXGATEWAY|58=MsgSeqNum too low, expecting 17 but received 1|10=013|
8=FIX.4.4|9=66|35=5|34=2|49=FIXGATEWAY|52=20250705-15:11:59.136|56=FIX_SIMULATOR|10=226|
8=FIX.4.4|9=78|35=A|34=1|49=FIXGATEWAY|52=20250705-15:12:17.346|56=FIX_SIMULATOR|98=0|108=30|10=007|
8=FIX.4.4|9=78|35=A|34=1|49=FIX_SIMULATOR|52=20250705-15:12:17.396|56=FIXGATEWAY|98=0|108=30|10=012|
8=FIX.4.4|9=145|35=D|34=2|49=FIXGATEWAY|52=20250705-15:12:26.676|56=FIX_SIMULATOR|11=ALGO01_20250705-111226656_000001|21=1|54=1|55=TSLA|60=20250705-15:12:26.675|10=023|
8=FIX.4.4|9=124|35=3|34=2|49=FIX_SIMULATOR|52=20250705-15:12:26.696|56=FIXGATEWAY|45=2|58=Required tag missing, field=40|371=40|372=D|373=1|10=164|
8=FIX.4.4|9=152|35=D|34=3|49=FIXGATEWAY|52=20250705-15:12:26.760|56=FIX_SIMULATOR|11=ALGO01_20250705-111226755_000002|21=1|44=800|54=2|55=NVDA|60=20250705-15:12:26.759|10=072|
8=FIX.4.4|9=124|35=3|34=3|49=FIX_SIMULATOR|52=20250705-15:12:26.763|56=FIXGATEWAY|45=3|58=Required tag missing, field=40|371=40|372=D|373=1|10=161|
8=FIX.4.4|9=145|35=D|34=4|49=FIXGATEWAY|52=20250705-15:12:26.778|56=FIX_SIMULATOR|11=ALGO01_20250705-111226776_000003|21=1|54=2|55=AMZN|60=20250705-15:12:26.778|10=040|
8=FIX.4.4|9=124|35=3|34=4|49=FIX_SIMULATOR|52=20250705-15:12:26.780|56=FIXGATEWAY|45=4|58=Required tag missing, field=40|371=40|372=D|373=1|10=162|
8=FIX.4.4|9=152|35=D|34=5|49=FIXGATEWAY|52=20250705-15:12:26.792|56=FIX_SIMULATOR|11=ALGO01_20250705-111226790_000004|21=1|44=350|54=1|55=META|60=20250705-15:12:26.792|10=074|
8=FIX.4.4|9=124|35=3|34=5|49=FIX_SIMULATOR|52=20250705-15:12:26.794|56=FIXGATEWAY|45=5|58=Required tag missing, field=40|371=40|372=D|373=1|10=169|
8=FIX.4.4|9=66|35=0|34=6|49=FIX_SIMULATOR|52=20250705-15:12:57.318|56=FIXGATEWAY|10=226|
8=FIX.4.4|9=66|35=0|34=6|49=FIXGATEWAY|52=20250705-15:12:57.320|56=FIX_SIMULATOR|10=219|
8=FIX.4.4|9=66|35=0|34=7|49=FIX_SIMULATOR|52=20250705-15:13:27.317|56=FIXGATEWAY|10=224|
8=FIX.4.4|9=66|35=0|34=7|49=FIXGATEWAY|52=20250705-15:13:27.319|56=FIX_SIMULATOR|10=226|
8=FIX.4.4|9=66|35=0|34=8|49=FIX_SIMULATOR|52=20250705-15:13:57.317|56=FIXGATEWAY|10=228|
8=FIX.4.4|9=66|35=0|34=8|49=FIXGATEWAY|52=20250705-15:13:57.320|56=FIX_SIMULATOR|10=222|
8=FIX.4.4|9=66|35=0|34=9|49=FIX_SIMULATOR|52=20250705-15:14:27.317|56=FIXGATEWAY|10=227|
8=FIX.4.4|9=66|35=0|34=9|49=FIXGATEWAY|52=20250705-15:14:27.319|56=FIX_SIMULATOR|10=229|
8=FIX.4.4|9=67|35=0|34=10|49=FIX_SIMULATOR|52=20250705-15:14:57.317|56=FIXGATEWAY|10=015|
8=FIX.4.4|9=67|35=0|34=10|49=FIXGATEWAY|52=20250705-15:14:57.321|56=FIX_SIMULATOR|10=010|
8=FIX.4.4|9=67|35=0|34=11|49=FIX_SIMULATOR|52=20250705-15:15:27.317|56=FIXGATEWAY|10=014|
8=FIX.4.4|9=67|35=0|34=11|49=FIXGATEWAY|52=20250705-15:15:27.319|56=FIX_SIMULATOR|10=016|
8=FIX.4.4|9=67|35=0|34=12|49=FIX_SIMULATOR|52=20250705-15:15:57.317|56=FIXGATEWAY|10=018|
8=FIX.4.4|9=67|35=0|34=12|49=FIXGATEWAY|52=20250705-15:15:57.321|56=FIX_SIMULATOR|10=013|
8=FIX.4.4|9=67|35=0|34=13|49=FIX_SIMULATOR|52=20250705-15:16:27.318|56=FIXGATEWAY|10=018|
8=FIX.4.4|9=67|35=0|34=13|49=FIXGATEWAY|52=20250705-15:16:27.322|56=FIX_SIMULATOR|10=013|
8=FIX.4.4|9=67|35=0|34=14|49=FIX_SIMULATOR|52=20250705-15:16:57.317|56=FIXGATEWAY|10=021|
8=FIX.4.4|9=67|35=0|34=14|49=FIXGATEWAY|52=20250705-15:16:57.322|56=FIX_SIMULATOR|10=017|
8=FIX.4.4|9=67|35=0|34=15|49=FIX_SIMULATOR|52=20250705-15:17:27.317|56=FIXGATEWAY|10=020|
8=FIX.4.4|9=67|35=0|34=15|49=FIXGATEWAY|52=20250705-15:17:27.320|56=FIX_SIMULATOR|10=014|
8=FIX.4.4|9=67|35=0|34=16|49=FIX_SIMULATOR|52=20250705-15:17:57.317|56=FIXGATEWAY|10=024|
8=FIX.4.4|9=67|35=0|34=16|49=FIXGATEWAY|52=20250705-15:17:57.319|56=FIX_SIMULATOR|10=026|
8=FIX.4.4|9=67|35=0|34=17|49=FIX_SIMULATOR|52=20250705-15:18:27.317|56=FIXGATEWAY|10=023|
8=FIX.4.4|9=67|35=0|34=17|49=FIXGATEWAY|52=20250705-15:18:27.319|56=FIX_SIMULATOR|10=025|
8=FIX.4.4|9=67|35=0|34=18|49=FIX_SIMULATOR|52=20250705-15:18:57.318|56=FIXGATEWAY|10=028|
8=FIX.4.4|9=67|35=0|34=18|49=FIXGATEWAY|52=20250705-15:18:57.324|56=FIX_SIMULATOR|10=025|
8=FIX.4.4|9=67|35=0|34=19|49=FIX_SIMULATOR|52=20250705-15:19:27.317|56=FIXGATEWAY|10=026|
8=FIX.4.4|9=67|35=0|34=19|49=FIXGATEWAY|52=20250705-15:19:27.319|56=FIX_SIMULATOR|10=028|
8=FIX.4.4|9=67|35=0|34=20|49=FIX_SIMULATOR|52=20250705-15:19:57.317|56=FIXGATEWAY|10=021|
8=FIX.4.4|9=67|35=0|34=20|49=FIXGATEWAY|52=20250705-15:19:57.320|56=FIX_SIMULATOR|10=015|
8=FIX.4.4|9=67|35=0|34=21|49=FIX_SIMULATOR|52=20250705-15:20:27.317|56=FIXGATEWAY|10=011|
8=FIX.4.4|9=67|35=0|34=21|49=FIXGATEWAY|52=20250705-15:20:27.321|56=FIX_SIMULATOR|10=006|
8=FIX.4.4|9=67|35=0|34=22|49=FIX_SIMULATOR|52=20250705-15:20:57.317|56=FIXGATEWAY|10=015|
8=FIX.4.4|9=67|35=0|34=22|49=FIXGATEWAY|52=20250705-15:20:57.320|56=FIX_SIMULATOR|10=009|
8=FIX.4.4|9=67|35=0|34=23|49=FIX_SIMULATOR|52=20250705-15:21:27.317|56=FIXGATEWAY|10=014|
8=FIX.4.4|9=67|35=0|34=23|49=FIXGATEWAY|52=20250705-15:21:27.319|56=FIX_SIMULATOR|10=016|
8=FIX.4.4|9=67|35=0|34=24|49=FIX_SIMULATOR|52=20250705-15:21:57.317|56=FIXGATEWAY|10=018|
8=FIX.4.4|9=67|35=0|34=24|49=FIXGATEWAY|52=20250705-15:21:57.319|56=FIX_SIMULATOR|10=020|
8=FIX.4.4|9=67|35=0|34=25|49=FIX_SIMULATOR|52=20250705-15:22:27.317|56=FIXGATEWAY|10=017|
8=FIX.4.4|9=67|35=0|34=25|49=FIXGATEWAY|52=20250705-15:22:27.319|56=FIX_SIMULATOR|10=019|
8=FIX.4.4|9=67|35=0|34=26|49=FIX_SIMULATOR|52=20250705-15:22:57.317|56=FIXGATEWAY|10=021|
8=FIX.4.4|9=67|35=0|34=26|49=FIXGATEWAY|52=20250705-15:22:57.319|56=FIX_SIMULATOR|10=023|
8=FIX.4.4|9=67|35=0|34=27|49=FIX_SIMULATOR|52=20250705-15:23:27.317|56=FIXGATEWAY|10=020|
8=FIX.4.4|9=67|35=0|34=27|49=FIXGATEWAY|52=20250705-15:23:27.319|56=FIX_SIMULATOR|10=022|
8=FIX.4.4|9=67|35=0|34=28|49=FIX_SIMULATOR|52=20250705-15:23:57.317|56=FIXGATEWAY|10=024|
8=FIX.4.4|9=67|35=0|34=28|49=FIXGATEWAY|52=20250705-15:23:57.318|56=FIX_SIMULATOR|10=025|
8=FIX.4.4|9=67|35=0|34=29|49=FIX_SIMULATOR|52=20250705-15:24:27.317|56=FIXGATEWAY|10=023|
8=FIX.4.4|9=67|35=0|34=29|49=FIXGATEWAY|52=20250705-15:24:27.319|56=FIX_SIMULATOR|10=025|
8=FIX.4.4|9=67|35=0|34=30|49=FIX_SIMULATOR|52=20250705-15:24:57.317|56=FIXGATEWAY|10=018|
8=FIX.4.4|9=67|35=0|34=30|49=FIXGATEWAY|52=20250705-15:24:57.319|56=FIX_SIMULATOR|10=020|
8=FIX.4.4|9=67|35=0|34=31|49=FIX_SIMULATOR|52=20250705-15:25:27.317|56=FIXGATEWAY|10=017|
8=FIX.4.4|9=67|35=0|34=31|49=FIXGATEWAY|52=20250705-15:25:27.319|56=FIX_SIMULATOR|10=019|
8=FIX.4.4|9=67|35=0|34=32|49=FIX_SIMULATOR|52=20250705-15:25:57.317|56=FIXGATEWAY|10=021|
8=FIX.4.4|9=67|35=0|34=32|49=FIXGATEWAY|52=20250705-15:25:57.319|56=FIX_SIMULATOR|10=023|
8=FIX.4.4|9=67|35=0|34=33|49=FIX_SIMULATOR|52=20250705-15:26:27.317|56=FIXGATEWAY|10=020|
8=FIX.4.4|9=67|35=0|34=33|49=FIXGATEWAY|52=20250705-15:26:27.318|56=FIX_SIMULATOR|10=021|
8=FIX.4.4|9=67|35=0|34=34|49=FIX_SIMULATOR|52=20250705-15:26:57.317|56=FIXGATEWAY|10=024|
8=FIX.4.4|9=67|35=0|34=34|49=FIXGATEWAY|52=20250705-15:26:57.318|56=FIX_SIMULATOR|10=025|
8=FIX.4.4|9=67|35=0|34=35|49=FIX_SIMULATOR|52=20250705-15:27:27.317|56=FIXGATEWAY|10=023|
8=FIX.4.4|9=67|35=0|34=35|49=FIXGATEWAY|52=20250705-15:27:27.319|56=FIX_SIMULATOR|10=025|
8=FIX.4.4|9=67|35=0|34=36|49=FIX_SIMULATOR|52=20250705-15:27:57.317|56=FIXGATEWAY|10=027|
8=FIX.4.4|9=67|35=0|34=36|49=FIXGATEWAY|52=20250705-15:27:57.319|56=FIX_SIMULATOR|10=029|
8=FIX.4.4|9=67|35=0|34=37|49=FIX_SIMULATOR|52=20250705-15:28:27.317|56=FIXGATEWAY|10=026|
8=FIX.4.4|9=67|35=0|34=37|49=FIXGATEWAY|52=20250705-15:28:27.320|56=FIX_SIMULATOR|10=020|
8=FIX.4.4|9=67|35=0|34=38|49=FIX_SIMULATOR|52=20250705-15:28:57.317|56=FIXGATEWAY|10=030|
8=FIX.4.4|9=67|35=0|34=38|49=FIXGATEWAY|52=20250705-15:28:57.318|56=FIX_SIMULATOR|10=031|
8=FIX.4.4|9=67|35=0|34=39|49=FIX_SIMULATOR|52=20250705-15:29:27.317|56=FIXGATEWAY|10=029|
8=FIX.4.4|9=67|35=0|34=39|49=FIXGATEWAY|52=20250705-15:29:27.320|56=FIX_SIMULATOR|10=023|
8=FIX.4.4|9=67|35=0|34=40|49=FIX_SIMULATOR|52=20250705-15:29:57.317|56=FIXGATEWAY|10=024|
8=FIX.4.4|9=67|35=0|34=40|49=FIXGATEWAY|52=20250705-15:29:57.321|56=FIX_SIMULATOR|10=019|
8=FIX.4.4|9=67|35=0|34=41|49=FIX_SIMULATOR|52=20250705-15:30:27.317|56=FIXGATEWAY|10=014|
8=FIX.4.4|9=67|35=0|34=41|49=FIXGATEWAY|52=20250705-15:30:27.319|56=FIX_SIMULATOR|10=016|
8=FIX.4.4|9=67|35=0|34=42|49=FIX_SIMULATOR|52=20250705-15:30:57.317|56=FIXGATEWAY|10=018|
8=FIX.4.4|9=67|35=0|34=42|49=FIXGATEWAY|52=20250705-15:30:57.319|56=FIX_SIMULATOR|10=020|
8=FIX.4.4|9=67|35=0|34=43|49=FIX_SIMULATOR|52=20250705-15:31:27.317|56=FIXGATEWAY|10=017|
8=FIX.4.4|9=67|35=0|34=43|49=FIXGATEWAY|52=20250705-15:31:27.321|56=FIX_SIMULATOR|10=012|
8=FIX.4.4|9=67|35=0|34=44|49=FIX_SIMULATOR|52=20250705-15:31:57.317|56=FIXGATEWAY|10=021|
8=FIX.4.4|9=67|35=0|34=44|49=FIXGATEWAY|52=20250705-15:31:57.318|56=FIX_SIMULATOR|10=022|
8=FIX.4.4|9=67|35=5|34=45|49=FIXGATEWAY|52=20250705-15:32:17.338|56=FIX_SIMULATOR|10=027|
8=FIX.4.4|9=67|35=5|34=45|49=FIX_SIMULATOR|52=20250705-15:32:17.340|56=FIXGATEWAY|10=020|
8=FIX.4.4|9=78|35=A|34=1|49=FIXGATEWAY|52=20250705-15:32:42.553|56=FIX_SIMULATOR|98=0|108=30|10=007|
8=FIX.4.4|9=78|35=A|34=1|49=FIX_SIMULATOR|52=20250705-15:32:42.621|56=FIXGATEWAY|98=0|108=30|10=003|
8=FIX.4.4|9=66|35=5|34=2|49=FIXGATEWAY|52=20250705-15:32:43.542|56=FIX_SIMULATOR|10=223|
8=FIX.4.4|9=66|35=5|34=2|49=FIX_SIMULATOR|52=20250705-15:32:43.545|56=FIXGATEWAY|10=226|
8=FIX.4.4|9=78|35=A|34=1|49=FIXGATEWAY|52=20250705-15:32:54.451|56=FIX_SIMULATOR|98=0|108=30|10=007|
8=FIX.4.4|9=115|35=5|34=3|49=FIX_SIMULATOR|52=20250705-15:32:54.493|56=FIXGATEWAY|58=MsgSeqNum too low, expecting 3 but received 1|10=170|
8=FIX.4.4|9=66|35=5|34=2|49=FIXGATEWAY|52=20250705-15:32:54.504|56=FIX_SIMULATOR|10=223|
8=FIX.4.4|9=78|35=A|34=3|49=FIXGATEWAY|52=20250705-15:32:59.432|56=FIX_SIMULATOR|98=0|108=30|10=013|
8=FIX.4.4|9=78|35=A|34=4|49=FIX_SIMULATOR|52=20250705-15:32:59.437|56=FIXGATEWAY|98=0|108=30|10=019|
8=FIX.4.4|9=75|35=2|34=4|49=FIXGATEWAY|52=20250705-15:32:59.440|56=FIX_SIMULATOR|7=1|16=0|10=093|
8=FIX.4.4|9=108|35=4|34=1|43=Y|49=FIX_SIMULATOR|52=20250705-15:32:59.444|56=FIXGATEWAY|122=20250705-15:32:59.444|36=5|123=Y|10=037|
8=FIX.4.4|9=66|35=0|34=5|49=FIXGATEWAY|52=20250705-15:33:29.432|56=FIX_SIMULATOR|10=224|
8=FIX.4.4|9=66|35=0|34=5|49=FIX_SIMULATOR|52=20250705-15:33:29.439|56=FIXGATEWAY|10=231|
8=FIX.4.4|9=66|35=0|34=6|49=FIXGATEWAY|52=20250705-15:33:59.431|56=FIX_SIMULATOR|10=227|
8=FIX.4.4|9=66|35=0|34=6|49=FIX_SIMULATOR|52=20250705-15:33:59.436|56=FIXGATEWAY|10=232|
8=FIX.4.4|9=66|35=0|34=7|49=FIXGATEWAY|52=20250705-15:34:29.431|56=FIX_SIMULATOR|10=226|
8=FIX.4.4|9=66|35=0|34=7|49=FIX_SIMULATOR|52=20250705-15:34:29.433|56=FIXGATEWAY|10=228|
8=FIX.4.4|9=66|35=0|34=8|49=FIXGATEWAY|52=20250705-15:34:59.431|56=FIX_SIMULATOR|10=230|
8=FIX.4.4|9=66|35=0|34=8|49=FIX_SIMULATOR|52=20250705-15:34:59.436|56=FIXGATEWAY|10=235|
8=FIX.4.4|9=66|35=0|34=9|49=FIXGATEWAY|52=20250705-15:35:29.431|56=FIX_SIMULATOR|10=229|
8=FIX.4.4|9=66|35=0|34=9|49=FIX_SIMULATOR|52=20250705-15:35:29.436|56=FIXGATEWAY|10=234|
8=FIX.4.4|9=67|35=0|34=10|49=FIXGATEWAY|52=20250705-15:35:59.431|56=FIX_SIMULATOR|10=017|
8=FIX.4.4|9=67|35=0|34=10|49=FIX_SIMULATOR|52=20250705-15:35:59.437|56=FIXGATEWAY|10=023|
8=FIX.4.4|9=67|35=0|34=11|49=FIXGATEWAY|52=20250705-15:36:29.431|56=FIX_SIMULATOR|10=016|
8=FIX.4.4|9=67|35=0|34=11|49=FIX_SIMULATOR|52=20250705-15:36:29.435|56=FIXGATEWAY|10=020|
8=FIX.4.4|9=67|35=0|34=12|49=FIXGATEWAY|52=20250705-15:36:59.431|56=FIX_SIMULATOR|10=020|
8=FIX.4.4|9=67|35=0|34=12|49=FIX_SIMULATOR|52=20250705-15:36:59.436|56=FIXGATEWAY|10=025|
8=FIX.4.4|9=67|35=0|34=13|49=FIXGATEWAY|52=20250705-15:37:29.431|56=FIX_SIMULATOR|10=019|
8=FIX.4.4|9=67|35=0|34=13|49=FIX_SIMULATOR|52=20250705-15:37:29.434|56=FIXGATEWAY|10=022|
8=FIX.4.4|9=67|35=0|34=14|49=FIXGATEWAY|52=20250705-15:37:59.431|56=FIX_SIMULATOR|10=023|
8=FIX.4.4|9=67|35=0|34=14|49=FIX_SIMULATOR|52=20250705-15:37:59.434|56=FIXGATEWAY|10=026|
8=FIX.4.4|9=67|35=5|34=15|49=FIXGATEWAY|52=20250705-15:38:21.431|56=FIX_SIMULATOR|10=019|
8=FIX.4.4|9=67|35=5|34=15|49=FIX_SIMULATOR|52=20250705-15:38:21.434|56=FIXGATEWAY|10=022|
8=FIX.4.4|9=78|35=A|34=1|49=FIXGATEWAY|52=20250705-15:38:51.037|56=FIX_SIMULATOR|98=0|108=30|10=010|
8=FIX.4.4|9=78|35=A|34=1|49=FIX_SIMULATOR|52=20250705-15:38:51.080|56=FIXGATEWAY|98=0|108=30|10=008|
8=FIX.4.4|9=145|35=D|34=2|49=FIXGATEWAY|52=20250705-15:39:09.039|56=FIX_SIMULATOR|11=ALGO01_20250705-113909018_000001|21=1|54=1|55=AAPL|60=20250705-15:39:09.039|10=010|
8=FIX.4.4|9=124|35=3|34=2|49=FIX_SIMULATOR|52=20250705-15:39:09.060|56=FIXGATEWAY|45=2|58=Required tag missing, field=40|371=40|372=D|373=1|10=159|
8=FIX.4.4|9=75|35=1|34=3|49=FIX_SIMULATOR|52=20250705-15:39:36.509|56=FIXGATEWAY|112=TEST|10=250|
8=FIX.4.4|9=75|35=0|34=3|49=FIXGATEWAY|52=20250705-15:39:36.513|56=FIX_SIMULATOR|112=TEST|10=244|
8=FIX.4.4|9=66|35=0|34=4|49=FIX_SIMULATOR|52=20250705-15:40:06.508|56=FIXGATEWAY|10=220|
8=FIX.4.4|9=66|35=0|34=4|49=FIXGATEWAY|52=20250705-15:40:06.510|56=FIX_SIMULATOR|10=213|
8=FIX.4.4|9=145|35=D|34=5|49=FIXGATEWAY|52=20250705-15:40:19.028|56=FIX_SIMULATOR|11=ALGO01_20250705-114019023_000002|21=1|54=1|55=AAPL|60=20250705-15:40:19.028|10=241|
8=FIX.4.4|9=124|35=3|34=5|49=FIX_SIMULATOR|52=20250705-15:40:19.032|56=FIXGATEWAY|45=5|58=Required tag missing, field=40|371=40|372=D|373=1|10=157|
8=FIX.4.4|9=145|35=D|34=6|49=FIXGATEWAY|52=20250705-15:40:38.875|56=FIX_SIMULATOR|11=ALGO01_20250705-114038868_000003|21=1|54=1|55=AAPL|60=20250705-15:40:38.875|10=027|
8=FIX.4.4|9=124|35=3|34=6|49=FIX_SIMULATOR|52=20250705-15:40:38.879|56=FIXGATEWAY|45=6|58=Required tag missing, field=40|371=40|372=D|373=1|10=179|
8=FIX.4.4|9=75|35=1|34=7|49=FIX_SIMULATOR|52=20250705-15:40:52.508|56=FIXGATEWAY|112=TEST|10=243|
8=FIX.4.4|9=75|35=0|34=7|49=FIXGATEWAY|52=20250705-15:40:52.512|56=FIX_SIMULATOR|112=TEST|10=237|
8=FIX.4.4|9=66|35=0|34=8|49=FIX_SIMULATOR|52=20250705-15:41:22.509|56=FIXGATEWAY|10=224|
8=FIX.4.4|9=66|35=0|34=8|49=FIXGATEWAY|52=20250705-15:41:22.513|56=FIX_SIMULATOR|10=219|
8=FIX.4.4|9=66|35=0|34=9|49=FIX_SIMULATOR|52=20250705-15:41:52.508|56=FIXGATEWAY|10=227|
8=FIX.4.4|9=66|35=0|34=9|49=FIXGATEWAY|52=20250705-15:41:52.512|56=FIX_SIMULATOR|10=222|
8=FIX.4.4|9=67|35=0|34=10|49=FIX_SIMULATOR|52=20250705-15:42:22.508|56=FIXGATEWAY|10=010|
8=FIX.4.4|9=67|35=0|34=10|49=FIXGATEWAY|52=20250705-15:42:22.513|56=FIX_SIMULATOR|10=006|
8=FIX.4.4|9=67|35=0|34=11|49=FIX_SIMULATOR|52=20250705-15:42:52.508|56=FIXGATEWAY|10=014|
8=FIX.4.4|9=67|35=0|34=11|49=FIXGATEWAY|52=20250705-15:42:52.510|56=FIX_SIMULATOR|10=007|
8=FIX.4.4|9=67|35=0|34=12|49=FIX_SIMULATOR|52=20250705-15:43:22.508|56=FIXGATEWAY|10=013|
8=FIX.4.4|9=67|35=0|34=12|49=FIXGATEWAY|52=20250705-15:43:22.512|56=FIX_SIMULATOR|10=008|
8=FIX.4.4|9=67|35=0|34=13|49=FIX_SIMULATOR|52=20250705-15:43:52.508|56=FIXGATEWAY|10=017|
8=FIX.4.4|9=67|35=0|34=13|49=FIXGATEWAY|52=20250705-15:43:52.510|56=FIX_SIMULATOR|10=010|
8=FIX.4.4|9=67|35=0|34=14|49=FIX_SIMULATOR|52=20250705-15:44:22.508|56=FIXGATEWAY|10=016|
8=FIX.4.4|9=67|35=0|34=14|49=FIXGATEWAY|52=20250705-15:44:22.509|56=FIX_SIMULATOR|10=017|
8=FIX.4.4|9=67|35=0|34=15|49=FIX_SIMULATOR|52=20250705-15:44:52.508|56=FIXGATEWAY|10=020|
8=FIX.4.4|9=67|35=0|34=15|49=FIXGATEWAY|52=20250705-15:44:52.513|56=FIX_SIMULATOR|10=016|
8=FIX.4.4|9=67|35=0|34=16|49=FIX_SIMULATOR|52=20250705-15:45:22.508|56=FIXGATEWAY|10=019|
8=FIX.4.4|9=67|35=0|34=16|49=FIXGATEWAY|52=20250705-15:45:22.509|56=FIX_SIMULATOR|10=020|
8=FIX.4.4|9=67|35=5|34=17|49=FIX_SIMULATOR|52=20250705-15:45:28.509|56=FIXGATEWAY|10=032|
8=FIX.4.4|9=67|35=5|34=17|49=FIXGATEWAY|52=20250705-15:45:28.513|56=FIX_SIMULATOR|10=027|
8=FIX.4.4|9=78|35=A|34=1|49=FIXGATEWAY|52=20250705-17:46:17.342|56=FIX_SIMULATOR|98=0|108=30|10=012|
8=FIX.4.4|9=78|35=A|34=1|49=FIX_SIMULATOR|52=20250705-17:46:17.390|56=FIXGATEWAY|98=0|108=30|10=015|
8=FIX.4.4|9=144|35=D|34=2|49=FIXGATEWAY|52=20250705-17:46:43.974|56=FIX_SIMULATOR|11=ALGO01_20250705-134643950_000001|21=1|54=1|55=ttt|60=20250705-17:46:43.974|10=086|
8=FIX.4.4|9=124|35=3|34=2|49=FIX_SIMULATOR|52=20250705-17:46:43.995|56=FIXGATEWAY|45=2|58=Required tag missing, field=40|371=40|372=D|373=1|10=174|
8=FIX.4.4|9=75|35=1|34=3|49=FIX_SIMULATOR|52=20250705-17:47:03.323|56=FIXGATEWAY|112=TEST|10=239|
8=FIX.4.4|9=75|35=0|34=3|49=FIXGATEWAY|52=20250705-17:47:03.325|56=FIX_SIMULATOR|112=TEST|10=240|
8=FIX.4.4|9=66|35=0|34=4|49=FIX_SIMULATOR|52=20250705-17:47:33.322|56=FIXGATEWAY|10=223|
8=FIX.4.4|9=66|35=0|34=4|49=FIXGATEWAY|52=20250705-17:47:33.324|56=FIX_SIMULATOR|10=225|
8=FIX.4.4|9=66|35=0|34=5|49=FIX_SIMULATOR|52=20250705-17:48:03.323|56=FIXGATEWAY|10=223|
8=FIX.4.4|9=66|35=0|34=5|49=FIXGATEWAY|52=20250705-17:48:03.326|56=FIX_SIMULATOR|10=226|
8=FIX.4.4|9=66|35=0|34=6|49=FIX_SIMULATOR|52=20250705-17:48:33.323|56=FIXGATEWAY|10=227|
8=FIX.4.4|9=66|35=0|34=6|49=FIXGATEWAY|52=20250705-17:48:33.326|56=FIX_SIMULATOR|10=230|
8=FIX.4.4|9=66|35=0|34=7|49=FIX_SIMULATOR|52=20250705-17:49:03.322|56=FIXGATEWAY|10=225|
8=FIX.4.4|9=66|35=0|34=7|49=FIXGATEWAY|52=20250705-17:49:03.324|56=FIX_SIMULATOR|10=227|
8=FIX.4.4|9=66|35=0|34=8|49=FIX_SIMULATOR|52=20250705-17:49:33.322|56=FIXGATEWAY|10=229|
8=FIX.4.4|9=66|35=0|34=8|49=FIXGATEWAY|52=20250705-17:49:33.327|56=FIX_SIMULATOR|10=234|
8=FIX.4.4|9=66|35=0|34=9|49=FIX_SIMULATOR|52=20250705-17:50:03.322|56=FIXGATEWAY|10=219|
8=FIX.4.4|9=66|35=0|34=9|49=FIXGATEWAY|52=20250705-17:50:03.324|56=FIX_SIMULATOR|10=221|
8=FIX.4.4|9=67|35=0|34=10|49=FIX_SIMULATOR|52=20250705-17:50:33.322|56=FIXGATEWAY|10=007|
8=FIX.4.4|9=67|35=0|34=10|49=FIXGATEWAY|52=20250705-17:50:33.324|56=FIX_SIMULATOR|10=009|
8=FIX.4.4|9=67|35=0|34=11|49=FIX_SIMULATOR|52=20250705-17:51:03.322|56=FIXGATEWAY|10=006|
8=FIX.4.4|9=67|35=0|34=11|49=FIXGATEWAY|52=20250705-17:51:03.326|56=FIX_SIMULATOR|10=010|
8=FIX.4.4|9=67|35=5|34=12|49=FIX_SIMULATOR|52=20250705-17:51:15.323|56=FIXGATEWAY|10=016|
8=FIX.4.4|9=67|35=5|34=12|49=FIXGATEWAY|52=20250705-17:51:15.327|56=FIX_SIMULATOR|10=020|
8=FIX.4.4|9=78|35=A|34=1|49=FIXGATEWAY|52=20250705-17:51:40.560|56=FIX_SIMULATOR|98=0|108=30|10=006|
8=FIX.4.4|9=78|35=A|34=1|49=FIX_SIMULATOR|52=20250705-17:51:40.609|56=FIXGATEWAY|98=0|108=30|10=010|
8=FIX.4.4|9=66|35=5|34=2|49=FIXGATEWAY|52=20250705-17:51:41.551|56=FIX_SIMULATOR|10=224|
8=FIX.4.4|9=66|35=5|34=2|49=FIX_SIMULATOR|52=20250705-17:51:41.554|56=FIXGATEWAY|10=227|
8=FIX.4.4|9=78|35=A|34=1|49=FIXGATEWAY|52=20250705-17:51:51.799|56=FIX_SIMULATOR|98=0|108=30|10=022|
8=FIX.4.4|9=115|35=5|34=3|49=FIX_SIMULATOR|52=20250705-17:51:51.837|56=FIXGATEWAY|58=MsgSeqNum too low, expecting 3 but received 1|10=172|
8=FIX.4.4|9=66|35=5|34=2|49=FIXGATEWAY|52=20250705-17:51:51.845|56=FIX_SIMULATOR|10=231|
8=FIX.4.4|9=78|35=A|34=3|49=FIXGATEWAY|52=20250705-17:51:56.787|56=FIX_SIMULATOR|98=0|108=30|10=026|
8=FIX.4.4|9=78|35=A|34=4|49=FIX_SIMULATOR|52=20250705-17:51:56.793|56=FIXGATEWAY|98=0|108=30|10=024|
8=FIX.4.4|9=75|35=2|34=4|49=FIXGATEWAY|52=20250705-17:51:56.798|56=FIX_SIMULATOR|7=1|16=0|10=109|
8=FIX.4.4|9=108|35=4|34=1|43=Y|49=FIX_SIMULATOR|52=20250705-17:51:56.805|56=FIXGATEWAY|122=20250705-17:51:56.805|36=5|123=Y|10=039|
8=FIX.4.4|9=66|35=0|34=5|49=FIX_SIMULATOR|52=20250705-17:52:27.065|56=FIXGATEWAY|10=227|
8=FIX.4.4|9=66|35=0|34=5|49=FIXGATEWAY|52=20250705-17:52:27.070|56=FIX_SIMULATOR|10=223|
8=FIX.4.4|9=148|35=D|34=6|49=FIXGATEWAY|52=20250705-17:52:32.502|56=FIX_SIMULATOR|11=ALGO01_20250705-135232464_000001|21=1|40=1|54=1|55=aa|60=20250705-17:52:32.502|10=110|
8=FIX.4.4|9=66|35=0|34=6|49=FIX_SIMULATOR|52=20250705-17:52:57.064|56=FIXGATEWAY|10=230|
8=FIX.4.4|9=66|35=0|34=7|49=FIXGATEWAY|52=20250705-17:53:02.787|56=FIX_SIMULATOR|10=234|
8=FIX.4.4|9=155|35=D|34=8|49=FIXGATEWAY|52=20250705-17:53:10.963|56=FIX_SIMULATOR|11=ALGO01_20250705-135310959_000002|21=1|40=2|44=111|54=1|55=aa|60=20250705-17:53:10.962|10=190|
8=FIX.4.4|9=66|35=0|34=7|49=FIX_SIMULATOR|52=20250705-17:53:27.064|56=FIXGATEWAY|10=229|
8=FIX.4.4|9=66|35=0|34=9|49=FIXGATEWAY|52=20250705-17:53:41.787|56=FIX_SIMULATOR|10=239|
8=FIX.4.4|9=66|35=0|34=8|49=FIX_SIMULATOR|52=20250705-17:53:57.064|56=FIXGATEWAY|10=233|
8=FIX.4.4|9=67|35=0|34=10|49=FIXGATEWAY|52=20250705-17:54:11.787|56=FIX_SIMULATOR|10=022|
8=FIX.4.4|9=66|35=0|34=9|49=FIX_SIMULATOR|52=20250705-17:54:27.064|56=FIXGATEWAY|10=232|
8=FIX.4.4|9=67|35=0|34=11|49=FIXGATEWAY|52=20250705-17:54:41.787|56=FIX_SIMULATOR|10=026|
8=FIX.4.4|9=67|35=0|34=10|49=FIX_SIMULATOR|52=20250705-17:54:57.064|56=FIXGATEWAY|10=020|
8=FIX.4.4|9=67|35=0|34=12|49=FIXGATEWAY|52=20250705-17:55:11.788|56=FIX_SIMULATOR|10=026|
8=FIX.4.4|9=67|35=0|34=11|49=FIX_SIMULATOR|52=20250705-17:55:27.064|56=FIXGATEWAY|10=019|
8=FIX.4.4|9=67|35=0|34=13|49=FIXGATEWAY|52=20250705-17:55:41.787|56=FIX_SIMULATOR|10=029|
8=FIX.4.4|9=67|35=0|34=12|49=FIX_SIMULATOR|52=20250705-17:55:57.064|56=FIXGATEWAY|10=023|
8=FIX.4.4|9=67|35=0|34=14|49=FIXGATEWAY|52=20250705-17:56:11.787|56=FIX_SIMULATOR|10=028|
8=FIX.4.4|9=156|35=D|34=15|49=FIXGATEWAY|52=20250705-17:56:24.239|56=FIX_SIMULATOR|11=ALGO01_20250705-135624233_000003|21=1|40=2|44=111|54=1|55=aa|60=20250705-17:56:24.238|10=239|
8=FIX.4.4|9=67|35=0|34=13|49=FIX_SIMULATOR|52=20250705-17:56:27.064|56=FIXGATEWAY|10=022|
8=FIX.4.4|9=67|35=0|34=16|49=FIXGATEWAY|52=20250705-17:56:54.787|56=FIX_SIMULATOR|10=037|
8=FIX.4.4|9=67|35=0|34=14|49=FIX_SIMULATOR|52=20250705-17:56:57.064|56=FIXGATEWAY|10=026|
8=FIX.4.4|9=67|35=0|34=17|49=FIXGATEWAY|52=20250705-17:57:24.787|56=FIX_SIMULATOR|10=036|
8=FIX.4.4|9=67|35=0|34=15|49=FIX_SIMULATOR|52=20250705-17:57:27.064|56=FIXGATEWAY|10=025|
8=FIX.4.4|9=67|35=0|34=18|49=FIXGATEWAY|52=20250705-17:57:54.787|56=FIX_SIMULATOR|10=040|
8=FIX.4.4|9=67|35=0|34=16|49=FIX_SIMULATOR|52=20250705-17:57:57.064|56=FIXGATEWAY|10=029|
8=FIX.4.4|9=67|35=0|34=19|49=FIXGATEWAY|52=20250705-17:58:24.787|56=FIX_SIMULATOR|10=039|
8=FIX.4.4|9=67|35=0|34=17|49=FIX_SIMULATOR|52=20250705-17:58:27.064|56=FIXGATEWAY|10=028|
8=FIX.4.4|9=67|35=0|34=20|49=FIXGATEWAY|52=20250705-17:58:54.787|56=FIX_SIMULATOR|10=034|
8=FIX.4.4|9=67|35=0|34=18|49=FIX_SIMULATOR|52=20250705-17:58:57.064|56=FIXGATEWAY|10=032|
8=FIX.4.4|9=67|35=0|34=21|49=FIXGATEWAY|52=20250705-17:59:24.787|56=FIX_SIMULATOR|10=033|
8=FIX.4.4|9=67|35=0|34=19|49=FIX_SIMULATOR|52=20250705-17:59:27.064|56=FIXGATEWAY|10=031|
8=FIX.4.4|9=67|35=0|34=22|49=FIXGATEWAY|52=20250705-17:59:54.787|56=FIX_SIMULATOR|10=037|
8=FIX.4.4|9=67|35=0|34=20|49=FIX_SIMULATOR|52=20250705-17:59:57.064|56=FIXGATEWAY|10=026|
8=FIX.4.4|9=67|35=0|34=23|49=FIXGATEWAY|52=20250705-18:00:24.787|56=FIX_SIMULATOR|10=022|
8=FIX.4.4|9=67|35=0|34=21|49=FIX_SIMULATOR|52=20250705-18:00:27.064|56=FIXGATEWAY|10=011|
8=FIX.4.4|9=67|35=0|34=24|49=FIXGATEWAY|52=20250705-18:00:54.787|56=FIX_SIMULATOR|10=026|
8=FIX.4.4|9=67|35=0|34=22|49=FIX_SIMULATOR|52=20250705-18:00:57.064|56=FIXGATEWAY|10=015|
8=FIX.4.4|9=67|35=0|34=25|49=FIXGATEWAY|52=20250705-18:01:24.787|56=FIX_SIMULATOR|10=025|
8=FIX.4.4|9=67|35=0|34=23|49=FIX_SIMULATOR|52=20250705-18:01:27.064|56=FIXGATEWAY|10=014|
8=FIX.4.4|9=67|35=0|34=26|49=FIXGATEWAY|52=20250705-18:01:54.787|56=FIX_SIMULATOR|10=029|
8=FIX.4.4|9=67|35=0|34=24|49=FIX_SIMULATOR|52=20250705-18:01:57.064|56=FIXGATEWAY|10=018|
8=FIX.4.4|9=67|35=0|34=27|49=FIXGATEWAY|52=20250705-18:02:24.787|56=FIX_SIMULATOR|10=028|
8=FIX.4.4|9=67|35=0|34=25|49=FIX_SIMULATOR|52=20250705-18:02:27.064|56=FIXGATEWAY|10=017|
8=FIX.4.4|9=67|35=0|34=28|49=FIXGATEWAY|52=20250705-18:02:54.787|56=FIX_SIMULATOR|10=032|
8=FIX.4.4|9=67|35=0|34=26|49=FIX_SIMULATOR|52=20250705-18:02:57.064|56=FIXGATEWAY|10=021|
8=FIX.4.4|9=67|35=0|34=29|49=FIXGATEWAY|52=20250705-18:03:24.787|56=FIX_SIMULATOR|10=031|
8=FIX.4.4|9=67|35=0|34=27|49=FIX_SIMULATOR|52=20250705-18:03:27.064|56=FIXGATEWAY|10=020|
8=FIX.4.4|9=67|35=0|34=30|49=FIXGATEWAY|52=20250705-18:03:54.787|56=FIX_SIMULATOR|10=026|
8=FIX.4.4|9=67|35=0|34=28|49=FIX_SIMULATOR|52=20250705-18:03:57.064|56=FIXGATEWAY|10=024|
8=FIX.4.4|9=67|35=0|34=31|49=FIXGATEWAY|52=20250705-18:04:24.787|56=FIX_SIMULATOR|10=025|
8=FIX.4.4|9=67|35=0|34=29|49=FIX_SIMULATOR|52=20250705-18:04:27.064|56=FIXGATEWAY|10=023|
8=FIX.4.4|9=67|35=0|34=32|49=FIXGATEWAY|52=20250705-18:04:54.787|56=FIX_SIMULATOR|10=029|
8=FIX.4.4|9=67|35=0|34=30|49=FIX_SIMULATOR|52=20250705-18:04:57.064|56=FIXGATEWAY|10=018|
8=FIX.4.4|9=67|35=0|34=33|49=FIXGATEWAY|52=20250705-18:05:24.787|56=FIX_SIMULATOR|10=028|
8=FIX.4.4|9=67|35=0|34=31|49=FIX_SIMULATOR|52=20250705-18:05:27.064|56=FIXGATEWAY|10=017|
8=FIX.4.4|9=67|35=0|34=34|49=FIXGATEWAY|52=20250705-18:05:54.787|56=FIX_SIMULATOR|10=032|
8=FIX.4.4|9=67|35=0|34=32|49=FIX_SIMULATOR|52=20250705-18:05:57.064|56=FIXGATEWAY|10=021|
8=FIX.4.4|9=67|35=0|34=35|49=FIXGATEWAY|52=20250705-18:06:24.787|56=FIX_SIMULATOR|10=031|
8=FIX.4.4|9=67|35=0|34=33|49=FIX_SIMULATOR|52=20250705-18:06:27.064|56=FIXGATEWAY|10=020|
8=FIX.4.4|9=67|35=0|34=36|49=FIXGATEWAY|52=20250705-18:06:54.787|56=FIX_SIMULATOR|10=035|
8=FIX.4.4|9=67|35=0|34=34|49=FIX_SIMULATOR|52=20250705-18:06:57.064|56=FIXGATEWAY|10=024|
8=FIX.4.4|9=67|35=0|34=37|49=FIXGATEWAY|52=20250705-18:07:24.787|56=FIX_SIMULATOR|10=034|
8=FIX.4.4|9=67|35=0|34=35|49=FIX_SIMULATOR|52=20250705-18:07:27.064|56=FIXGATEWAY|10=023|
8=FIX.4.4|9=67|35=0|34=38|49=FIXGATEWAY|52=20250705-18:07:54.787|56=FIX_SIMULATOR|10=038|
8=FIX.4.4|9=67|35=0|34=36|49=FIX_SIMULATOR|52=20250705-18:07:57.064|56=FIXGATEWAY|10=027|
8=FIX.4.4|9=67|35=0|34=39|49=FIXGATEWAY|52=20250705-18:08:24.787|56=FIX_SIMULATOR|10=037|
8=FIX.4.4|9=67|35=0|34=37|49=FIX_SIMULATOR|52=20250705-18:08:27.064|56=FIXGATEWAY|10=026|
8=FIX.4.4|9=67|35=0|34=40|49=FIXGATEWAY|52=20250705-18:08:54.787|56=FIX_SIMULATOR|10=032|
8=FIX.4.4|9=67|35=0|34=38|49=FIX_SIMULATOR|52=20250705-18:08:57.064|56=FIXGATEWAY|10=030|
8=FIX.4.4|9=67|35=0|34=41|49=FIXGATEWAY|52=20250705-18:09:24.787|56=FIX_SIMULATOR|10=031|
8=FIX.4.4|9=67|35=0|34=39|49=FIX_SIMULATOR|52=20250705-18:09:27.064|56=FIXGATEWAY|10=029|
8=FIX.4.4|9=67|35=0|34=42|49=FIXGATEWAY|52=20250705-18:09:54.787|56=FIX_SIMULATOR|10=035|
8=FIX.4.4|9=67|35=0|34=40|49=FIX_SIMULATOR|52=20250705-18:09:57.064|56=FIXGATEWAY|10=024|
8=FIX.4.4|9=67|35=0|34=43|49=FIXGATEWAY|52=20250705-18:10:24.787|56=FIX_SIMULATOR|10=025|
8=FIX.4.4|9=67|35=0|34=41|49=FIX_SIMULATOR|52=20250705-18:10:27.064|56=FIXGATEWAY|10=014|
8=FIX.4.4|9=67|35=0|34=44|49=FIXGATEWAY|52=20250705-18:10:54.787|56=FIX_SIMULATOR|10=029|
8=FIX.4.4|9=67|35=0|34=42|49=FIX_SIMULATOR|52=20250705-18:10:57.064|56=FIXGATEWAY|10=018|
8=FIX.4.4|9=67|35=0|34=45|49=FIXGATEWAY|52=20250705-18:11:24.787|56=FIX_SIMULATOR|10=028|
8=FIX.4.4|9=67|35=0|34=43|49=FIX_SIMULATOR|52=20250705-18:11:27.064|56=FIXGATEWAY|10=017|
8=FIX.4.4|9=67|35=0|34=46|49=FIXGATEWAY|52=20250705-18:11:54.787|56=FIX_SIMULATOR|10=032|
8=FIX.4.4|9=67|35=0|34=44|49=FIX_SIMULATOR|52=20250705-18:11:57.064|56=FIXGATEWAY|10=021|
8=FIX.4.4|9=67|35=0|34=47|49=FIXGATEWAY|52=20250705-18:12:24.787|56=FIX_SIMULATOR|10=031|
8=FIX.4.4|9=67|35=0|34=45|49=FIX_SIMULATOR|52=20250705-18:12:27.064|56=FIXGATEWAY|10=020|
8=FIX.4.4|9=67|35=0|34=48|49=FIXGATEWAY|52=20250705-18:12:54.787|56=FIX_SIMULATOR|10=035|
8=FIX.4.4|9=67|35=0|34=46|49=FIX_SIMULATOR|52=20250705-18:12:57.064|56=FIXGATEWAY|10=024|
8=FIX.4.4|9=67|35=0|34=49|49=FIXGATEWAY|52=20250705-18:13:24.787|56=FIX_SIMULATOR|10=034|
8=FIX.4.4|9=67|35=0|34=47|49=FIX_SIMULATOR|52=20250705-18:13:27.064|56=FIXGATEWAY|10=023|
8=FIX.4.4|9=67|35=0|34=50|49=FIXGATEWAY|52=20250705-18:13:54.787|56=FIX_SIMULATOR|10=029|
8=FIX.4.4|9=67|35=0|34=48|49=FIX_SIMULATOR|52=20250705-18:13:57.064|56=FIXGATEWAY|10=027|
8=FIX.4.4|9=67|35=0|34=51|49=FIXGATEWAY|52=20250705-18:14:24.787|56=FIX_SIMULATOR|10=028|
8=FIX.4.4|9=67|35=0|34=49|49=FIX_SIMULATOR|52=20250705-18:14:27.064|56=FIXGATEWAY|10=026|
8=FIX.4.4|9=67|35=0|34=52|49=FIXGATEWAY|52=20250705-18:14:54.787|56=FIX_SIMULATOR|10=032|
8=FIX.4.4|9=67|35=0|34=50|49=FIX_SIMULATOR|52=20250705-18:14:57.064|56=FIXGATEWAY|10=021|
8=FIX.4.4|9=67|35=0|34=53|49=FIXGATEWAY|52=20250705-18:15:24.787|56=FIX_SIMULATOR|10=031|
8=FIX.4.4|9=67|35=0|34=51|49=FIX_SIMULATOR|52=20250705-18:15:27.064|56=FIXGATEWAY|10=020|
8=FIX.4.4|9=67|35=0|34=54|49=FIXGATEWAY|52=20250705-18:15:54.787|56=FIX_SIMULATOR|10=035|
8=FIX.4.4|9=67|35=0|34=52|49=FIX_SIMULATOR|52=20250705-18:15:57.064|56=FIXGATEWAY|10=024|
8=FIX.4.4|9=67|35=0|34=55|49=FIXGATEWAY|52=20250705-18:16:24.787|56=FIX_SIMULATOR|10=034|
8=FIX.4.4|9=67|35=0|34=53|49=FIX_SIMULATOR|52=20250705-18:16:27.064|56=FIXGATEWAY|10=023|
8=FIX.4.4|9=67|35=0|34=56|49=FIXGATEWAY|52=20250705-18:16:54.787|56=FIX_SIMULATOR|10=038|
8=FIX.4.4|9=67|35=0|34=54|49=FIX_SIMULATOR|52=20250705-18:16:57.064|56=FIXGATEWAY|10=027|
8=FIX.4.4|9=67|35=0|34=57|49=FIXGATEWAY|52=20250705-18:17:24.787|56=FIX_SIMULATOR|10=037|
8=FIX.4.4|9=67|35=0|34=55|49=FIX_SIMULATOR|52=20250705-18:17:27.064|56=FIXGATEWAY|10=026|
8=FIX.4.4|9=67|35=0|34=58|49=FIXGATEWAY|52=20250705-18:17:54.787|56=FIX_SIMULATOR|10=041|
8=FIX.4.4|9=67|35=0|34=56|49=FIX_SIMULATOR|52=20250705-18:17:57.064|56=FIXGATEWAY|10=030|
8=FIX.4.4|9=67|35=0|34=59|49=FIXGATEWAY|52=20250705-18:18:24.787|56=FIX_SIMULATOR|10=040|
8=FIX.4.4|9=67|35=0|34=57|49=FIX_SIMULATOR|52=20250705-18:18:27.064|56=FIXGATEWAY|10=029|
8=FIX.4.4|9=67|35=0|34=60|49=FIXGATEWAY|52=20250705-18:18:54.787|56=FIX_SIMULATOR|10=035|
8=FIX.4.4|9=67|35=0|34=58|49=FIX_SIMULATOR|52=20250705-18:18:57.064|56=FIXGATEWAY|10=033|
8=FIX.4.4|9=67|35=0|34=61|49=FIXGATEWAY|52=20250705-18:19:24.787|56=FIX_SIMULATOR|10=034|
8=FIX.4.4|9=67|35=0|34=59|49=FIX_SIMULATOR|52=20250705-18:19:27.064|56=FIXGATEWAY|10=032|
8=FIX.4.4|9=67|35=0|34=62|49=FIXGATEWAY|52=20250705-18:19:54.787|56=FIX_SIMULATOR|10=038|
8=FIX.4.4|9=67|35=0|34=60|49=FIX_SIMULATOR|52=20250705-18:19:57.064|56=FIXGATEWAY|10=027|
8=FIX.4.4|9=67|35=0|34=63|49=FIXGATEWAY|52=20250705-18:20:24.787|56=FIX_SIMULATOR|10=028|
8=FIX.4.4|9=67|35=0|34=61|49=FIX_SIMULATOR|52=20250705-18:20:27.064|56=FIXGATEWAY|10=017|
8=FIX.4.4|9=67|35=0|34=64|49=FIXGATEWAY|52=20250705-18:20:54.787|56=FIX_SIMULATOR|10=032|
8=FIX.4.4|9=67|35=0|34=62|49=FIX_SIMULATOR|52=20250705-18:20:57.064|56=FIXGATEWAY|10=021|
8=FIX.4.4|9=67|35=0|34=65|49=FIXGATEWAY|52=20250705-18:21:24.787|56=FIX_SIMULATOR|10=031|
8=FIX.4.4|9=67|35=0|34=63|49=FIX_SIMULATOR|52=20250705-18:21:27.064|56=FIXGATEWAY|10=020|
8=FIX.4.4|9=67|35=0|34=66|49=FIXGATEWAY|52=20250705-18:21:54.787|56=FIX_SIMULATOR|10=035|
8=FIX.4.4|9=67|35=0|34=64|49=FIX_SIMULATOR|52=20250705-18:21:57.064|56=FIXGATEWAY|10=024|
8=FIX.4.4|9=67|35=0|34=67|49=FIXGATEWAY|52=20250705-18:22:24.787|56=FIX_SIMULATOR|10=034|
8=FIX.4.4|9=67|35=0|34=65|49=FIX_SIMULATOR|52=20250705-18:22:27.064|56=FIXGATEWAY|10=023|
8=FIX.4.4|9=67|35=0|34=68|49=FIXGATEWAY|52=20250705-18:22:54.787|56=FIX_SIMULATOR|10=038|
8=FIX.4.4|9=67|35=0|34=66|49=FIX_SIMULATOR|52=20250705-18:22:57.064|56=FIXGATEWAY|10=027|
8=FIX.4.4|9=67|35=0|34=69|49=FIXGATEWAY|52=20250705-18:23:24.787|56=FIX_SIMULATOR|10=037|
8=FIX.4.4|9=67|35=0|34=67|49=FIX_SIMULATOR|52=20250705-18:23:27.064|56=FIXGATEWAY|10=026|
8=FIX.4.4|9=67|35=0|34=70|49=FIXGATEWAY|52=20250705-18:23:54.787|56=FIX_SIMULATOR|10=032|
8=FIX.4.4|9=67|35=0|34=68|49=FIX_SIMULATOR|52=20250705-18:23:57.064|56=FIXGATEWAY|10=030|
8=FIX.4.4|9=67|35=0|34=71|49=FIXGATEWAY|52=20250705-18:24:24.787|56=FIX_SIMULATOR|10=031|
8=FIX.4.4|9=67|35=0|34=69|49=FIX_SIMULATOR|52=20250705-18:24:27.064|56=FIXGATEWAY|10=029|
8=FIX.4.4|9=67|35=0|34=72|49=FIXGATEWAY|52=20250705-18:24:54.787|56=FIX_SIMULATOR|10=035|
8=FIX.4.4|9=67|35=0|34=70|49=FIX_SIMULATOR|52=20250705-18:24:57.064|56=FIXGATEWAY|10=024|
8=FIX.4.4|9=67|35=0|34=73|49=FIXGATEWAY|52=20250705-18:25:24.787|56=FIX_SIMULATOR|10=034|
8=FIX.4.4|9=67|35=0|34=71|49=FIX_SIMULATOR|52=20250705-18:25:27.064|56=FIXGATEWAY|10=023|
8=FIX.4.4|9=67|35=0|34=74|49=FIXGATEWAY|52=20250705-18:25:54.787|56=FIX_SIMULATOR|10=038|
8=FIX.4.4|9=67|35=0|34=72|49=FIX_SIMULATOR|52=20250705-18:25:57.064|56=FIXGATEWAY|10=027|
8=FIX.4.4|9=67|35=0|34=75|49=FIXGATEWAY|52=20250705-18:26:24.787|56=FIX_SIMULATOR|10=037|
8=FIX.4.4|9=67|35=0|34=73|49=FIX_SIMULATOR|52=20250705-18:26:27.064|56=FIXGATEWAY|10=026|
8=FIX.4.4|9=67|35=0|34=76|49=FIXGATEWAY|52=20250705-18:26:54.787|56=FIX_SIMULATOR|10=041|
8=FIX.4.4|9=67|35=0|34=74|49=FIX_SIMULATOR|52=20250705-18:26:57.064|56=FIXGATEWAY|10=030|
8=FIX.4.4|9=67|35=0|34=77|49=FIXGATEWAY|52=20250705-18:27:24.787|56=FIX_SIMULATOR|10=040|
8=FIX.4.4|9=67|35=0|34=75|49=FIX_SIMULATOR|52=20250705-18:27:27.064|56=FIXGATEWAY|10=029|
8=FIX.4.4|9=67|35=0|34=78|49=FIXGATEWAY|52=20250705-18:27:54.787|56=FIX_SIMULATOR|10=044|
8=FIX.4.4|9=67|35=0|34=76|49=FIX_SIMULATOR|52=20250705-18:27:57.064|56=FIXGATEWAY|10=033|
8=FIX.4.4|9=67|35=0|34=79|49=FIXGATEWAY|52=20250705-18:28:24.787|56=FIX_SIMULATOR|10=043|
8=FIX.4.4|9=67|35=0|34=77|49=FIX_SIMULATOR|52=20250705-18:28:27.064|56=FIXGATEWAY|10=032|
8=FIX.4.4|9=67|35=0|34=80|49=FIXGATEWAY|52=20250705-18:28:54.787|56=FIX_SIMULATOR|10=038|
8=FIX.4.4|9=67|35=0|34=78|49=FIX_SIMULATOR|52=20250705-18:28:57.064|56=FIXGATEWAY|10=036|
8=FIX.4.4|9=67|35=0|34=81|49=FIXGATEWAY|52=20250705-18:29:24.787|56=FIX_SIMULATOR|10=037|
8=FIX.4.4|9=67|35=0|34=79|49=FIX_SIMULATOR|52=20250705-18:29:27.064|56=FIXGATEWAY|10=035|
8=FIX.4.4|9=67|35=0|34=82|49=FIXGATEWAY|52=20250705-18:29:54.787|56=FIX_SIMULATOR|10=041|
8=FIX.4.4|9=67|35=0|34=80|49=FIX_SIMULATOR|52=20250705-18:29:57.064|56=FIXGATEWAY|10=030|
8=FIX.4.4|9=67|35=0|34=83|49=FIXGATEWAY|52=20250705-18:30:24.787|56=FIX_SIMULATOR|10=031|
8=FIX.4.4|9=67|35=0|34=81|49=FIX_SIMULATOR|52=20250705-18:30:27.064|56=FIXGATEWAY|10=020|
8=FIX.4.4|9=67|35=0|34=84|49=FIXGATEWAY|52=20250705-18:30:54.787|56=FIX_SIMULATOR|10=035|
8=FIX.4.4|9=67|35=0|34=82|49=FIX_SIMULATOR|52=20250705-18:30:57.064|56=FIXGATEWAY|10=024|
8=FIX.4.4|9=67|35=0|34=85|49=FIXGATEWAY|52=20250705-18:31:24.787|56=FIX_SIMULATOR|10=034|
8=FIX.4.4|9=67|35=0|34=83|49=FIX_SIMULATOR|52=20250705-18:31:27.064|56=FIXGATEWAY|10=023|
8=FIX.4.4|9=67|35=0|34=86|49=FIXGATEWAY|52=20250705-18:31:54.787|56=FIX_SIMULATOR|10=038|
8=FIX.4.4|9=67|35=0|34=84|49=FIX_SIMULATOR|52=20250705-18:31:57.064|56=FIXGATEWAY|10=027|
8=FIX.4.4|9=67|35=0|34=87|49=FIXGATEWAY|52=20250705-18:32:24.787|56=FIX_SIMULATOR|10=037|
8=FIX.4.4|9=67|35=0|34=85|49=FIX_SIMULATOR|52=20250705-18:32:27.064|56=FIXGATEWAY|10=026|
8=FIX.4.4|9=67|35=0|34=88|49=FIXGATEWAY|52=20250705-18:32:54.787|56=FIX_SIMULATOR|10=041|
8=FIX.4.4|9=67|35=0|34=86|49=FIX_SIMULATOR|52=20250705-18:32:57.064|56=FIXGATEWAY|10=030|
8=FIX.4.4|9=67|35=0|34=89|49=FIXGATEWAY|52=20250705-18:33:24.787|56=FIX_SIMULATOR|10=040|
8=FIX.4.4|9=67|35=0|34=87|49=FIX_SIMULATOR|52=20250705-18:33:27.064|56=FIXGATEWAY|10=029|
8=FIX.4.4|9=67|35=0|34=90|49=FIXGATEWAY|52=20250705-18:33:54.787|56=FIX_SIMULATOR|10=035|
8=FIX.4.4|9=67|35=0|34=88|49=FIX_SIMULATOR|52=20250705-18:33:57.064|56=FIXGATEWAY|10=033|
8=FIX.4.4|9=67|35=0|34=91|49=FIXGATEWAY|52=20250705-18:34:24.787|56=FIX_SIMULATOR|10=034|
8=FIX.4.4|9=67|35=0|34=89|49=FIX_SIMULATOR|52=20250705-18:34:27.064|56=FIXGATEWAY|10=032|
8=FIX.4.4|9=67|35=0|34=92|49=FIXGATEWAY|52=20250705-18:34:54.787|56=FIX_SIMULATOR|10=038|
8=FIX.4.4|9=67|35=0|34=90|49=FIX_SIMULATOR|52=20250705-18:34:57.064|56=FIXGATEWAY|10=027|
8=FIX.4.4|9=67|35=0|34=93|49=FIXGATEWAY|52=20250705-18:35:24.787|56=FIX_SIMULATOR|10=037|
8=FIX.4.4|9=67|35=0|34=91|49=FIX_SIMULATOR|52=20250705-18:35:27.064|56=FIXGATEWAY|10=026|
8=FIX.4.4|9=67|35=0|34=94|49=FIXGATEWAY|52=20250705-18:35:54.787|56=FIX_SIMULATOR|10=041|
8=FIX.4.4|9=67|35=0|34=92|49=FIX_SIMULATOR|52=20250705-18:35:57.064|56=FIXGATEWAY|10=030|
8=FIX.4.4|9=67|35=0|34=95|49=FIXGATEWAY|52=20250705-18:36:24.787|56=FIX_SIMULATOR|10=040|
8=FIX.4.4|9=67|35=0|34=93|49=FIX_SIMULATOR|52=20250705-18:36:27.064|56=FIXGATEWAY|10=029|
8=FIX.4.4|9=67|35=0|34=96|49=FIXGATEWAY|52=20250705-18:36:54.787|56=FIX_SIMULATOR|10=044|
8=FIX.4.4|9=67|35=0|34=94|49=FIX_SIMULATOR|52=20250705-18:36:57.064|56=FIXGATEWAY|10=033|
8=FIX.4.4|9=67|35=0|34=97|49=FIXGATEWAY|52=20250705-18:37:24.787|56=FIX_SIMULATOR|10=043|
8=FIX.4.4|9=67|35=0|34=95|49=FIX_SIMULATOR|52=20250705-18:37:27.064|56=FIXGATEWAY|10=032|
8=FIX.4.4|9=67|35=0|34=98|49=FIXGATEWAY|52=20250705-18:37:54.787|56=FIX_SIMULATOR|10=047|
8=FIX.4.4|9=67|35=0|34=96|49=FIX_SIMULATOR|52=20250705-18:37:57.064|56=FIXGATEWAY|10=036|
8=FIX.4.4|9=67|35=0|34=99|49=FIXGATEWAY|52=20250705-18:38:24.787|56=FIX_SIMULATOR|10=046|
8=FIX.4.4|9=67|35=0|34=97|49=FIX_SIMULATOR|52=20250705-18:38:27.064|56=FIXGATEWAY|10=035|
8=FIX.4.4|9=68|35=0|34=100|49=FIXGATEWAY|52=20250705-18:38:54.787|56=FIX_SIMULATOR|10=081|
8=FIX.4.4|9=67|35=0|34=98|49=FIX_SIMULATOR|52=20250705-18:38:57.064|56=FIXGATEWAY|10=039|
8=FIX.4.4|9=68|35=0|34=101|49=FIXGATEWAY|52=20250705-18:39:24.787|56=FIX_SIMULATOR|10=080|
8=FIX.4.4|9=67|35=0|34=99|49=FIX_SIMULATOR|52=20250705-18:39:27.064|56=FIXGATEWAY|10=038|
8=FIX.4.4|9=68|35=0|34=102|49=FIXGATEWAY|52=20250705-18:39:54.787|56=FIX_SIMULATOR|10=084|
8=FIX.4.4|9=68|35=0|34=100|49=FIX_SIMULATOR|52=20250705-18:39:57.064|56=FIXGATEWAY|10=073|
8=FIX.4.4|9=68|35=0|34=103|49=FIXGATEWAY|52=20250705-18:40:24.787|56=FIX_SIMULATOR|10=074|
8=FIX.4.4|9=68|35=0|34=101|49=FIX_SIMULATOR|52=20250705-18:40:27.064|56=FIXGATEWAY|10=063|
8=FIX.4.4|9=68|35=0|34=104|49=FIXGATEWAY|52=20250705-18:40:54.787|56=FIX_SIMULATOR|10=078|
8=FIX.4.4|9=68|35=0|34=102|49=FIX_SIMULATOR|52=20250705-18:40:57.064|56=FIXGATEWAY|10=067|
8=FIX.4.4|9=68|35=0|34=105|49=FIXGATEWAY|52=20250705-18:41:24.787|56=FIX_SIMULATOR|10=077|
8=FIX.4.4|9=68|35=0|34=103|49=FIX_SIMULATOR|52=20250705-18:41:27.064|56=FIXGATEWAY|10=066|
8=FIX.4.4|9=68|35=0|34=106|49=FIXGATEWAY|52=20250705-18:41:54.787|56=FIX_SIMULATOR|10=081|
8=FIX.4.4|9=68|35=0|34=104|49=FIX_SIMULATOR|52=20250705-18:41:57.064|56=FIXGATEWAY|10=070|
8=FIX.4.4|9=68|35=0|34=107|49=FIXGATEWAY|52=20250705-18:42:24.787|56=FIX_SIMULATOR|10=080|
8=FIX.4.4|9=68|35=0|34=105|49=FIX_SIMULATOR|52=20250705-18:42:27.064|56=FIXGATEWAY|10=069|
8=FIX.4.4|9=68|35=0|34=108|49=FIXGATEWAY|52=20250705-18:42:54.787|56=FIX_SIMULATOR|10=084|
8=FIX.4.4|9=68|35=0|34=106|49=FIX_SIMULATOR|52=20250705-18:42:57.064|56=FIXGATEWAY|10=073|
8=FIX.4.4|9=68|35=0|34=109|49=FIXGATEWAY|52=20250705-18:43:24.787|56=FIX_SIMULATOR|10=083|
8=FIX.4.4|9=68|35=0|34=107|49=FIX_SIMULATOR|52=20250705-18:43:27.064|56=FIXGATEWAY|10=072|
8=FIX.4.4|9=68|35=0|34=110|49=FIXGATEWAY|52=20250705-18:43:54.787|56=FIX_SIMULATOR|10=078|
8=FIX.4.4|9=68|35=0|34=108|49=FIX_SIMULATOR|52=20250705-18:43:57.064|56=FIXGATEWAY|10=076|
8=FIX.4.4|9=68|35=0|34=111|49=FIXGATEWAY|52=20250705-18:44:24.787|56=FIX_SIMULATOR|10=077|
8=FIX.4.4|9=68|35=0|34=109|49=FIX_SIMULATOR|52=20250705-18:44:27.064|56=FIXGATEWAY|10=075|
8=FIX.4.4|9=68|35=0|34=112|49=FIXGATEWAY|52=20250705-18:44:54.787|56=FIX_SIMULATOR|10=081|
8=FIX.4.4|9=68|35=0|34=110|49=FIX_SIMULATOR|52=20250705-18:44:57.064|56=FIXGATEWAY|10=070|
8=FIX.4.4|9=68|35=0|34=113|49=FIXGATEWAY|52=20250705-18:45:24.787|56=FIX_SIMULATOR|10=080|
8=FIX.4.4|9=68|35=0|34=111|49=FIX_SIMULATOR|52=20250705-18:45:27.064|56=FIXGATEWAY|10=069|
8=FIX.4.4|9=68|35=0|34=114|49=FIXGATEWAY|52=20250705-18:45:54.787|56=FIX_SIMULATOR|10=084|
8=FIX.4.4|9=68|35=0|34=112|49=FIX_SIMULATOR|52=20250705-18:45:57.064|56=FIXGATEWAY|10=073|
8=FIX.4.4|9=68|35=0|34=115|49=FIXGATEWAY|52=20250705-18:46:24.787|56=FIX_SIMULATOR|10=083|
8=FIX.4.4|9=68|35=0|34=113|49=FIX_SIMULATOR|52=20250705-18:46:27.065|56=FIXGATEWAY|10=073|
8=FIX.4.4|9=68|35=0|34=116|49=FIXGATEWAY|52=20250705-18:46:54.787|56=FIX_SIMULATOR|10=087|
8=FIX.4.4|9=68|35=0|34=114|49=FIX_SIMULATOR|52=20250705-18:46:57.064|56=FIXGATEWAY|10=076|
8=FIX.4.4|9=68|35=0|34=117|49=FIXGATEWAY|52=20250705-18:47:24.787|56=FIX_SIMULATOR|10=086|
8=FIX.4.4|9=68|35=0|34=115|49=FIX_SIMULATOR|52=20250705-18:47:27.064|56=FIXGATEWAY|10=075|
8=FIX.4.4|9=68|35=0|34=118|49=FIXGATEWAY|52=20250705-18:47:54.787|56=FIX_SIMULATOR|10=090|
8=FIX.4.4|9=68|35=0|34=116|49=FIX_SIMULATOR|52=20250705-18:47:57.064|56=FIXGATEWAY|10=079|
8=FIX.4.4|9=68|35=0|34=119|49=FIXGATEWAY|52=20250705-18:48:24.787|56=FIX_SIMULATOR|10=089|
8=FIX.4.4|9=68|35=0|34=117|49=FIX_SIMULATOR|52=20250705-18:48:27.064|56=FIXGATEWAY|10=078|
8=FIX.4.4|9=68|35=0|34=120|49=FIXGATEWAY|52=20250705-18:48:54.787|56=FIX_SIMULATOR|10=084|
8=FIX.4.4|9=68|35=0|34=118|49=FIX_SIMULATOR|52=20250705-18:48:57.064|56=FIXGATEWAY|10=082|
8=FIX.4.4|9=68|35=0|34=121|49=FIXGATEWAY|52=20250705-18:49:24.787|56=FIX_SIMULATOR|10=083|
8=FIX.4.4|9=68|35=0|34=119|49=FIX_SIMULATOR|52=20250705-18:49:27.064|56=FIXGATEWAY|10=081|
8=FIX.4.4|9=68|35=0|34=122|49=FIXGATEWAY|52=20250705-18:49:54.787|56=FIX_SIMULATOR|10=087|
8=FIX.4.4|9=68|35=0|34=120|49=FIX_SIMULATOR|52=20250705-18:49:57.064|56=FIXGATEWAY|10=076|
8=FIX.4.4|9=68|35=0|34=123|49=FIXGATEWAY|52=20250705-18:50:24.787|56=FIX_SIMULATOR|10=077|
8=FIX.4.4|9=68|35=0|34=121|49=FIX_SIMULATOR|52=20250705-18:50:27.064|56=FIXGATEWAY|10=066|
8=FIX.4.4|9=68|35=0|34=124|49=FIXGATEWAY|52=20250705-18:50:54.787|56=FIX_SIMULATOR|10=081|
8=FIX.4.4|9=68|35=0|34=122|49=FIX_SIMULATOR|52=20250705-18:50:57.064|56=FIXGATEWAY|10=070|
8=FIX.4.4|9=68|35=0|34=125|49=FIXGATEWAY|52=20250705-18:51:24.787|56=FIX_SIMULATOR|10=080|
8=FIX.4.4|9=68|35=0|34=123|49=FIX_SIMULATOR|52=20250705-18:51:27.064|56=FIXGATEWAY|10=069|
8=FIX.4.4|9=68|35=0|34=126|49=FIXGATEWAY|52=20250705-18:51:54.787|56=FIX_SIMULATOR|10=084|
8=FIX.4.4|9=68|35=0|34=124|49=FIX_SIMULATOR|52=20250705-18:51:57.064|56=FIXGATEWAY|10=073|
8=FIX.4.4|9=68|35=0|34=127|49=FIXGATEWAY|52=20250705-18:52:24.787|56=FIX_SIMULATOR|10=083|
8=FIX.4.4|9=68|35=0|34=125|49=FIX_SIMULATOR|52=20250705-18:52:27.064|56=FIXGATEWAY|10=072|
8=FIX.4.4|9=68|35=0|34=128|49=FIXGATEWAY|52=20250705-18:52:54.787|56=FIX_SIMULATOR|10=087|
8=FIX.4.4|9=68|35=0|34=126|49=FIX_SIMULATOR|52=20250705-18:52:57.064|56=FIXGATEWAY|10=076|
8=FIX.4.4|9=68|35=0|34=129|49=FIXGATEWAY|52=20250705-18:53:24.787|56=FIX_SIMULATOR|10=086|
8=FIX.4.4|9=68|35=0|34=127|49=FIX_SIMULATOR|52=20250705-18:53:27.064|56=FIXGATEWAY|10=075|
8=FIX.4.4|9=68|35=0|34=130|49=FIXGATEWAY|52=20250705-18:53:54.787|56=FIX_SIMULATOR|10=081|
8=FIX.4.4|9=68|35=0|34=128|49=FIX_SIMULATOR|52=20250705-18:53:57.064|56=FIXGATEWAY|10=079|
8=FIX.4.4|9=68|35=0|34=131|49=FIXGATEWAY|52=20250705-18:54:24.787|56=FIX_SIMULATOR|10=080|
8=FIX.4.4|9=68|35=0|34=129|49=FIX_SIMULATOR|52=20250705-18:54:27.064|56=FIXGATEWAY|10=078|
8=FIX.4.4|9=68|35=0|34=132|49=FIXGATEWAY|52=20250705-18:54:54.787|56=FIX_SIMULATOR|10=084|
8=FIX.4.4|9=68|35=0|34=130|49=FIX_SIMULATOR|52=20250705-18:54:57.064|56=FIXGATEWAY|10=073|
8=FIX.4.4|9=68|35=0|34=133|49=FIXGATEWAY|52=20250705-18:55:24.787|56=FIX_SIMULATOR|10=083|
8=FIX.4.4|9=68|35=0|34=131|49=FIX_SIMULATOR|52=20250705-18:55:27.064|56=FIXGATEWAY|10=072|
8=FIX.4.4|9=68|35=0|34=134|49=FIXGATEWAY|52=20250705-18:55:54.787|56=FIX_SIMULATOR|10=087|
8=FIX.4.4|9=68|35=0|34=132|49=FIX_SIMULATOR|52=20250705-18:55:57.064|56=FIXGATEWAY|10=076|
8=FIX.4.4|9=68|35=0|34=135|49=FIXGATEWAY|52=20250705-18:56:24.787|56=FIX_SIMULATOR|10=086|
8=FIX.4.4|9=68|35=0|34=133|49=FIX_SIMULATOR|52=20250705-18:56:27.064|56=FIXGATEWAY|10=075|
8=FIX.4.4|9=68|35=0|34=136|49=FIXGATEWAY|52=20250705-18:56:54.787|56=FIX_SIMULATOR|10=090|
8=FIX.4.4|9=68|35=0|34=134|49=FIX_SIMULATOR|52=20250705-18:56:57.064|56=FIXGATEWAY|10=079|
8=FIX.4.4|9=68|35=0|34=137|49=FIXGATEWAY|52=20250705-18:57:24.787|56=FIX_SIMULATOR|10=089|
8=FIX.4.4|9=68|35=0|34=135|49=FIX_SIMULATOR|52=20250705-18:57:27.064|56=FIXGATEWAY|10=078|
8=FIX.4.4|9=68|35=0|34=138|49=FIXGATEWAY|52=20250705-18:57:54.787|56=FIX_SIMULATOR|10=093|
8=FIX.4.4|9=68|35=0|34=136|49=FIX_SIMULATOR|52=20250705-18:57:57.064|56=FIXGATEWAY|10=082|
8=FIX.4.4|9=68|35=0|34=139|49=FIXGATEWAY|52=20250705-18:58:24.787|56=FIX_SIMULATOR|10=092|
8=FIX.4.4|9=68|35=5|34=137|49=FIX_SIMULATOR|52=20250705-18:58:25.065|56=FIXGATEWAY|10=085|
8=FIX.4.4|9=68|35=5|34=140|49=FIXGATEWAY|52=20250705-18:58:25.067|56=FIX_SIMULATOR|10=081|
8=FIX.4.4|9=78|35=A|34=1|49=FIXGATEWAY|52=20250705-19:02:13.145|56=FIX_SIMULATOR|98=0|108=30|10=003|
8=FIX.4.4|9=78|35=A|34=1|49=FIX_SIMULATOR|52=20250705-19:02:13.185|56=FIXGATEWAY|98=0|108=30|10=007|
8=FIX.4.4|9=150|35=D|34=2|49=FIXGATEWAY|52=20250705-19:02:26.073|56=FIX_SIMULATOR|11=ALGO01_20250705-150226048_000001|21=1|40=1|54=1|55=AAPL|60=20250705-19:02:26.073|10=195|
8=FIX.4.4|9=66|35=0|34=2|49=FIX_SIMULATOR|52=20250705-19:02:43.833|56=FIXGATEWAY|10=222|
8=FIX.4.4|9=66|35=0|34=3|49=FIXGATEWAY|52=20250705-19:02:56.138|56=FIX_SIMULATOR|10=225|
8=FIX.4.4|9=66|35=0|34=3|49=FIX_SIMULATOR|52=20250705-19:03:13.833|56=FIXGATEWAY|10=221|
8=FIX.4.4|9=66|35=0|34=4|49=FIXGATEWAY|52=20250705-19:03:26.138|56=FIX_SIMULATOR|10=224|
8=FIX.4.4|9=66|35=0|34=4|49=FIX_SIMULATOR|52=20250705-19:03:43.833|56=FIXGATEWAY|10=225|
8=FIX.4.4|9=66|35=0|34=5|49=FIXGATEWAY|52=20250705-19:03:56.138|56=FIX_SIMULATOR|10=228|
8=FIX.4.4|9=66|35=0|34=5|49=FIX_SIMULATOR|52=20250705-19:04:13.833|56=FIXGATEWAY|10=224|
8=FIX.4.4|9=66|35=0|34=6|49=FIXGATEWAY|52=20250705-19:04:26.138|56=FIX_SIMULATOR|10=227|
8=FIX.4.4|9=66|35=0|34=6|49=FIX_SIMULATOR|52=20250705-19:04:43.833|56=FIXGATEWAY|10=228|
8=FIX.4.4|9=66|35=0|34=7|49=FIXGATEWAY|52=20250705-19:04:56.138|56=FIX_SIMULATOR|10=231|
8=FIX.4.4|9=66|35=0|34=7|49=FIX_SIMULATOR|52=20250705-19:05:13.833|56=FIXGATEWAY|10=227|
8=FIX.4.4|9=66|35=0|34=8|49=FIXGATEWAY|52=20250705-19:05:26.138|56=FIX_SIMULATOR|10=230|
8=FIX.4.4|9=66|35=0|34=8|49=FIX_SIMULATOR|52=20250705-19:05:43.833|56=FIXGATEWAY|10=231|
8=FIX.4.4|9=66|35=0|34=9|49=FIXGATEWAY|52=20250705-19:05:56.138|56=FIX_SIMULATOR|10=234|
8=FIX.4.4|9=66|35=0|34=9|49=FIX_SIMULATOR|52=20250705-19:06:13.833|56=FIXGATEWAY|10=230|
8=FIX.4.4|9=67|35=0|34=10|49=FIXGATEWAY|52=20250705-19:06:26.138|56=FIX_SIMULATOR|10=017|
8=FIX.4.4|9=67|35=0|34=10|49=FIX_SIMULATOR|52=20250705-19:06:43.833|56=FIXGATEWAY|10=018|
8=FIX.4.4|9=67|35=0|34=11|49=FIXGATEWAY|52=20250705-19:06:56.138|56=FIX_SIMULATOR|10=021|
8=FIX.4.4|9=67|35=0|34=11|49=FIX_SIMULATOR|52=20250705-19:07:13.833|56=FIXGATEWAY|10=017|
8=FIX.4.4|9=67|35=0|34=12|49=FIXGATEWAY|52=20250705-19:07:26.138|56=FIX_SIMULATOR|10=020|
8=FIX.4.4|9=67|35=0|34=12|49=FIX_SIMULATOR|52=20250705-19:07:43.833|56=FIXGATEWAY|10=021|
8=FIX.4.4|9=67|35=0|34=13|49=FIXGATEWAY|52=20250705-19:07:56.138|56=FIX_SIMULATOR|10=024|
8=FIX.4.4|9=67|35=0|34=13|49=FIX_SIMULATOR|52=20250705-19:08:13.833|56=FIXGATEWAY|10=020|
8=FIX.4.4|9=67|35=0|34=14|49=FIXGATEWAY|52=20250705-19:08:26.138|56=FIX_SIMULATOR|10=023|
8=FIX.4.4|9=67|35=0|34=14|49=FIX_SIMULATOR|52=20250705-19:08:43.833|56=FIXGATEWAY|10=024|
8=FIX.4.4|9=67|35=0|34=15|49=FIXGATEWAY|52=20250705-19:08:56.138|56=FIX_SIMULATOR|10=027|
8=FIX.4.4|9=67|35=0|34=15|49=FIX_SIMULATOR|52=20250705-19:09:13.833|56=FIXGATEWAY|10=023|
8=FIX.4.4|9=67|35=5|34=16|49=FIX_SIMULATOR|52=20250705-19:09:14.833|56=FIXGATEWAY|10=030|
8=FIX.4.4|9=67|35=5|34=16|49=FIXGATEWAY|52=20250705-19:09:14.834|56=FIX_SIMULATOR|10=031|
8=FIX.4.4|9=78|35=A|34=1|49=FIXGATEWAY|52=20250705-19:09:58.457|56=FIX_SIMULATOR|98=0|108=30|10=025|
8=FIX.4.4|9=78|35=A|34=1|49=FIX_SIMULATOR|52=20250705-19:09:58.498|56=FIXGATEWAY|98=0|108=30|10=030|
8=FIX.4.4|9=149|35=D|34=2|49=FIXGATEWAY|52=20250705-19:10:16.564|56=FIX_SIMULATOR|11=ALGO01_20250705-151016527_000001|21=1|40=1|54=1|55=www|60=20250705-19:10:16.563|10=023|
8=FIX.4.4|9=66|35=0|34=2|49=FIX_SIMULATOR|52=20250705-19:10:29.243|56=FIXGATEWAY|10=220|
8=FIX.4.4|9=66|35=0|34=3|49=FIXGATEWAY|52=20250705-19:10:47.450|56=FIX_SIMULATOR|10=221|
8=FIX.4.4|9=66|35=0|34=3|49=FIX_SIMULATOR|52=20250705-19:10:59.243|56=FIXGATEWAY|10=224|
8=FIX.4.4|9=66|35=0|34=4|49=FIXGATEWAY|52=20250705-19:11:17.450|56=FIX_SIMULATOR|10=220|
8=FIX.4.4|9=66|35=0|34=4|49=FIX_SIMULATOR|52=20250705-19:11:29.243|56=FIXGATEWAY|10=223|
8=FIX.4.4|9=66|35=5|34=5|49=FIX_SIMULATOR|52=20250705-19:11:33.243|56=FIXGATEWAY|10=224|
8=FIX.4.4|9=66|35=5|34=5|49=FIXGATEWAY|52=20250705-19:11:33.247|56=FIX_SIMULATOR|10=228|
8=FIX.4.4|9=78|35=A|34=1|49=FIXGATEWAY|52=20250705-19:12:01.773|56=FIX_SIMULATOR|98=0|108=30|10=008|
8=FIX.4.4|9=78|35=A|34=1|49=FIX_SIMULATOR|52=20250705-19:12:01.827|56=FIXGATEWAY|98=0|108=30|10=008|
8=FIX.4.4|9=148|35=D|34=2|49=FIXGATEWAY|52=20250705-19:12:17.271|56=FIX_SIMULATOR|11=ALGO01_20250705-151217240_000001|21=1|40=1|54=1|55=aa|60=20250705-19:12:17.270|10=106|
8=FIX.4.4|9=66|35=0|34=2|49=FIX_SIMULATOR|52=20250705-19:12:32.015|56=FIXGATEWAY|10=213|
8=FIX.4.4|9=66|35=0|34=3|49=FIXGATEWAY|52=20250705-19:12:47.765|56=FIX_SIMULATOR|10=232|
8=FIX.4.4|9=66|35=0|34=3|49=FIX_SIMULATOR|52=20250705-19:13:02.015|56=FIXGATEWAY|10=212|
8=FIX.4.4|9=66|35=0|34=4|49=FIXGATEWAY|52=20250705-19:13:17.765|56=FIX_SIMULATOR|10=231|
8=FIX.4.4|9=66|35=0|34=4|49=FIX_SIMULATOR|52=20250705-19:13:32.015|56=FIXGATEWAY|10=216|
8=FIX.4.4|9=66|35=0|34=5|49=FIXGATEWAY|52=20250705-19:13:47.765|56=FIX_SIMULATOR|10=235|
8=FIX.4.4|9=66|35=0|34=5|49=FIX_SIMULATOR|52=20250705-19:14:02.015|56=FIXGATEWAY|10=215|
8=FIX.4.4|9=66|35=0|34=6|49=FIXGATEWAY|52=20250705-19:14:17.765|56=FIX_SIMULATOR|10=234|
8=FIX.4.4|9=66|35=0|34=6|49=FIX_SIMULATOR|52=20250705-19:14:32.015|56=FIXGATEWAY|10=219|
8=FIX.4.4|9=66|35=0|34=7|49=FIXGATEWAY|52=20250705-19:14:47.765|56=FIX_SIMULATOR|10=238|
8=FIX.4.4|9=66|35=0|34=7|49=FIX_SIMULATOR|52=20250705-19:15:02.015|56=FIXGATEWAY|10=218|
8=FIX.4.4|9=66|35=0|34=8|49=FIXGATEWAY|52=20250705-19:15:17.765|56=FIX_SIMULATOR|10=237|
8=FIX.4.4|9=66|35=0|34=8|49=FIX_SIMULATOR|52=20250705-19:15:32.015|56=FIXGATEWAY|10=222|
8=FIX.4.4|9=66|35=0|34=9|49=FIXGATEWAY|52=20250705-19:15:47.765|56=FIX_SIMULATOR|10=241|
8=FIX.4.4|9=66|35=0|34=9|49=FIX_SIMULATOR|52=20250705-19:16:02.015|56=FIXGATEWAY|10=221|
8=FIX.4.4|9=67|35=0|34=10|49=FIXGATEWAY|52=20250705-19:16:17.765|56=FIX_SIMULATOR|10=024|
8=FIX.4.4|9=67|35=0|34=10|49=FIX_SIMULATOR|52=20250705-19:16:32.015|56=FIXGATEWAY|10=009|
8=FIX.4.4|9=67|35=0|34=11|49=FIXGATEWAY|52=20250705-19:16:47.765|56=FIX_SIMULATOR|10=028|
8=FIX.4.4|9=67|35=0|34=11|49=FIX_SIMULATOR|52=20250705-19:17:02.015|56=FIXGATEWAY|10=008|
8=FIX.4.4|9=67|35=0|34=12|49=FIXGATEWAY|52=20250705-19:17:17.765|56=FIX_SIMULATOR|10=027|
8=FIX.4.4|9=67|35=0|34=12|49=FIX_SIMULATOR|52=20250705-19:17:32.015|56=FIXGATEWAY|10=012|
8=FIX.4.4|9=67|35=0|34=13|49=FIXGATEWAY|52=20250705-19:17:47.765|56=FIX_SIMULATOR|10=031|
8=FIX.4.4|9=67|35=0|34=13|49=FIX_SIMULATOR|52=20250705-19:18:02.015|56=FIXGATEWAY|10=011|
8=FIX.4.4|9=67|35=0|34=14|49=FIXGATEWAY|52=20250705-19:18:17.765|56=FIX_SIMULATOR|10=030|
8=FIX.4.4|9=67|35=0|34=14|49=FIX_SIMULATOR|52=20250705-19:18:32.015|56=FIXGATEWAY|10=015|
8=FIX.4.4|9=67|35=0|34=15|49=FIXGATEWAY|52=20250705-19:18:47.765|56=FIX_SIMULATOR|10=034|
8=FIX.4.4|9=67|35=0|34=15|49=FIX_SIMULATOR|52=20250705-19:19:02.015|56=FIXGATEWAY|10=014|
8=FIX.4.4|9=67|35=0|34=16|49=FIXGATEWAY|52=20250705-19:19:17.765|56=FIX_SIMULATOR|10=033|
8=FIX.4.4|9=67|35=0|34=16|49=FIX_SIMULATOR|52=20250705-19:19:32.015|56=FIXGATEWAY|10=018|
8=FIX.4.4|9=67|35=0|34=17|49=FIXGATEWAY|52=20250705-19:19:47.765|56=FIX_SIMULATOR|10=037|
8=FIX.4.4|9=67|35=0|34=17|49=FIX_SIMULATOR|52=20250705-19:20:02.015|56=FIXGATEWAY|10=008|
8=FIX.4.4|9=67|35=0|34=18|49=FIXGATEWAY|52=20250705-19:20:17.765|56=FIX_SIMULATOR|10=027|
8=FIX.4.4|9=67|35=0|34=18|49=FIX_SIMULATOR|52=20250705-19:20:32.015|56=FIXGATEWAY|10=012|
8=FIX.4.4|9=67|35=0|34=19|49=FIXGATEWAY|52=20250705-19:20:47.765|56=FIX_SIMULATOR|10=031|
8=FIX.4.4|9=67|35=0|34=19|49=FIX_SIMULATOR|52=20250705-19:21:02.015|56=FIXGATEWAY|10=011|
8=FIX.4.4|9=67|35=0|34=20|49=FIXGATEWAY|52=20250705-19:21:17.765|56=FIX_SIMULATOR|10=021|
8=FIX.4.4|9=67|35=0|34=20|49=FIX_SIMULATOR|52=20250705-19:21:32.015|56=FIXGATEWAY|10=006|
8=FIX.4.4|9=67|35=5|34=21|49=FIX_SIMULATOR|52=20250705-19:21:39.016|56=FIXGATEWAY|10=020|
8=FIX.4.4|9=67|35=5|34=21|49=FIXGATEWAY|52=20250705-19:21:39.019|56=FIX_SIMULATOR|10=023|
8=FIX.4.4|9=78|35=A|34=1|49=FIXGATEWAY|52=20250705-19:22:20.112|56=FIX_SIMULATOR|98=0|108=30|10=253|
8=FIX.4.4|9=78|35=A|34=1|49=FIX_SIMULATOR|52=20250705-19:22:20.166|56=FIXGATEWAY|98=0|108=30|10=006|
8=FIX.4.4|9=66|35=0|34=2|49=FIXGATEWAY|52=20250705-19:22:50.104|56=FIX_SIMULATOR|10=213|
8=FIX.4.4|9=66|35=0|34=2|49=FIX_SIMULATOR|52=20250705-19:22:50.952|56=FIXGATEWAY|10=224|
8=FIX.4.4|9=66|35=0|34=3|49=FIXGATEWAY|52=20250705-19:23:20.104|56=FIX_SIMULATOR|10=212|
8=FIX.4.4|9=66|35=0|34=3|49=FIX_SIMULATOR|52=20250705-19:23:20.952|56=FIXGATEWAY|10=223|
8=FIX.4.4|9=66|35=0|34=4|49=FIXGATEWAY|52=20250705-19:23:50.104|56=FIX_SIMULATOR|10=216|
8=FIX.4.4|9=66|35=0|34=4|49=FIX_SIMULATOR|52=20250705-19:23:50.953|56=FIXGATEWAY|10=228|
8=FIX.4.4|9=157|35=D|34=5|49=FIXGATEWAY|52=20250705-19:24:06.791|56=FIX_SIMULATOR|11=ALGO01_20250705-152406765_000001|21=1|38=100|40=1|54=1|55=aapl|60=20250705-19:24:06.789|10=168|
8=FIX.4.4|9=66|35=0|34=5|49=FIX_SIMULATOR|52=20250705-19:24:20.953|56=FIXGATEWAY|10=227|
8=FIX.4.4|9=66|35=0|34=6|49=FIXGATEWAY|52=20250705-19:24:37.104|56=FIX_SIMULATOR|10=224|
8=FIX.4.4|9=66|35=0|34=6|49=FIX_SIMULATOR|52=20250705-19:24:50.952|56=FIXGATEWAY|10=230|
8=FIX.4.4|9=66|35=0|34=7|49=FIXGATEWAY|52=20250705-19:25:07.104|56=FIX_SIMULATOR|10=223|
8=FIX.4.4|9=66|35=0|34=7|49=FIX_SIMULATOR|52=20250705-19:25:20.952|56=FIXGATEWAY|10=229|
8=FIX.4.4|9=66|35=0|34=8|49=FIXGATEWAY|52=20250705-19:25:37.104|56=FIX_SIMULATOR|10=227|
8=FIX.4.4|9=66|35=0|34=8|49=FIX_SIMULATOR|52=20250705-19:25:50.952|56=FIXGATEWAY|10=233|
8=FIX.4.4|9=66|35=0|34=9|49=FIXGATEWAY|52=20250705-19:26:07.104|56=FIX_SIMULATOR|10=226|
8=FIX.4.4|9=66|35=0|34=9|49=FIX_SIMULATOR|52=20250705-19:26:20.952|56=FIXGATEWAY|10=232|
8=FIX.4.4|9=67|35=0|34=10|49=FIXGATEWAY|52=20250705-19:26:37.104|56=FIX_SIMULATOR|10=014|
8=FIX.4.4|9=67|35=0|34=10|49=FIX_SIMULATOR|52=20250705-19:26:50.952|56=FIXGATEWAY|10=020|
8=FIX.4.4|9=67|35=0|34=11|49=FIXGATEWAY|52=20250705-19:27:07.104|56=FIX_SIMULATOR|10=013|
8=FIX.4.4|9=67|35=0|34=11|49=FIX_SIMULATOR|52=20250705-19:27:20.952|56=FIXGATEWAY|10=019|
8=FIX.4.4|9=67|35=0|34=12|49=FIXGATEWAY|52=20250705-19:27:37.104|56=FIX_SIMULATOR|10=017|
8=FIX.4.4|9=67|35=0|34=12|49=FIX_SIMULATOR|52=20250705-19:27:50.952|56=FIXGATEWAY|10=023|
8=FIX.4.4|9=67|35=0|34=13|49=FIXGATEWAY|52=20250705-19:28:07.104|56=FIX_SIMULATOR|10=016|
8=FIX.4.4|9=67|35=0|34=13|49=FIX_SIMULATOR|52=20250705-19:28:20.952|56=FIXGATEWAY|10=022|
8=FIX.4.4|9=67|35=0|34=14|49=FIXGATEWAY|52=20250705-19:28:37.104|56=FIX_SIMULATOR|10=020|
8=FIX.4.4|9=67|35=5|34=14|49=FIX_SIMULATOR|52=20250705-19:28:43.952|56=FIXGATEWAY|10=033|
8=FIX.4.4|9=67|35=5|34=15|49=FIXGATEWAY|52=20250705-19:28:43.953|56=FIX_SIMULATOR|10=035|
8=FIX.4.4|9=78|35=A|34=1|49=FIXGATEWAY|52=20250705-19:29:54.004|56=FIX_SIMULATOR|98=0|108=30|10=011|
8=FIX.4.4|9=78|35=A|34=1|49=FIX_SIMULATOR|52=20250705-19:29:54.063|56=FIXGATEWAY|98=0|108=30|10=016|
8=FIX.4.4|9=156|35=D|34=2|49=FIXGATEWAY|52=20250705-19:29:59.976|56=FIX_SIMULATOR|11=ALGO01_20250705-152959951_000001|21=1|38=99|40=1|54=1|55=aapl|60=20250705-19:29:59.975|10=171|
8=FIX.4.4|9=231|35=8|34=2|49=FIX_SIMULATOR|52=20250705-19:30:00.186|56=FIXGATEWAY|6=0.99|11=ALGO01_20250705-152959951_000001|14=0|17=ccc89268-a91c-409a-9599-65fba14d273a|37=0e0f40a9-6f80-4f97-8c6b-4f57ad7ed549|38=99|39=0|54=1|55=aapl|150=0|151=99|10=080|
8=FIX.4.4|9=66|35=0|34=3|49=FIXGATEWAY|52=20250705-19:30:29.994|56=FIX_SIMULATOR|10=236|
8=FIX.4.4|9=66|35=0|34=3|49=FIX_SIMULATOR|52=20250705-19:30:30.906|56=FIXGATEWAY|10=221|
8=FIX.4.4|9=66|35=0|34=4|49=FIXGATEWAY|52=20250705-19:30:59.993|56=FIX_SIMULATOR|10=239|
8=FIX.4.4|9=66|35=0|34=4|49=FIX_SIMULATOR|52=20250705-19:31:00.906|56=FIXGATEWAY|10=220|
8=FIX.4.4|9=157|35=D|34=5|49=FIXGATEWAY|52=20250705-19:31:20.472|56=FIX_SIMULATOR|11=ALGO01_20250705-153120470_000002|21=1|38=200|40=1|54=1|55=TSLA|60=20250705-19:31:20.472|10=024|
8=FIX.4.4|9=233|35=8|34=5|49=FIX_SIMULATOR|52=20250705-19:31:20.480|56=FIXGATEWAY|6=0.99|11=ALGO01_20250705-153120470_000002|14=0|17=1fc1458d-384f-4ea8-8905-c2fe314674ac|37=8875bbdc-7355-4aa0-89bf-2dee22c5996c|38=200|39=0|54=1|55=TSLA|150=0|151=200|10=057|
8=FIX.4.4|9=164|35=D|34=6|49=FIXGATEWAY|52=20250705-19:31:20.494|56=FIX_SIMULATOR|11=ALGO01_20250705-153120489_000003|21=1|38=150|40=2|44=800|54=2|55=NVDA|60=20250705-19:31:20.494|10=099|
8=FIX.4.4|9=240|35=8|34=6|49=FIX_SIMULATOR|52=20250705-19:31:20.500|56=FIXGATEWAY|6=0.99|11=ALGO01_20250705-153120489_000003|14=0|17=d1d91ccc-1218-4371-90c2-5216b8c5bccf|37=a4212c14-3ffb-4830-b9da-bb2f7c3d3290|38=150|39=0|44=800|54=2|55=NVDA|150=0|151=150|10=109|
8=FIX.4.4|9=156|35=D|34=7|49=FIXGATEWAY|52=20250705-19:31:20.515|56=FIX_SIMULATOR|11=ALGO01_20250705-153120509_000004|21=1|38=80|40=1|54=2|55=AMZN|60=20250705-19:31:20.514|10=242|
8=FIX.4.4|9=231|35=8|34=7|49=FIX_SIMULATOR|52=20250705-19:31:20.521|56=FIXGATEWAY|6=0.99|11=ALGO01_20250705-153120509_000004|14=0|17=dbc4cfc7-442a-4d3f-be46-a681726bd3d7|37=976cc6f2-bb8b-4f75-8e90-cfd1654de2c0|38=80|39=0|54=2|55=AMZN|150=0|151=80|10=205|
8=FIX.4.4|9=164|35=D|34=8|49=FIXGATEWAY|52=20250705-19:31:20.532|56=FIX_SIMULATOR|11=ALGO01_20250705-153120529_000005|21=1|38=120|40=2|44=350|54=1|55=META|60=20250705-19:31:20.532|10=078|
8=FIX.4.4|9=240|35=8|34=8|49=FIX_SIMULATOR|52=20250705-19:31:20.537|56=FIXGATEWAY|6=0.99|11=ALGO01_20250705-153120529_000005|14=0|17=e351aa84-d1e9-48c5-9cc4-5d20873c8812|37=e4c6a459-af05-4139-8834-4728a6c76f5b|38=120|39=0|44=350|54=1|55=META|150=0|151=120|10=136|
8=FIX.4.4|9=66|35=0|34=9|49=FIX_SIMULATOR|52=20250705-19:31:50.906|56=FIXGATEWAY|10=230|
8=FIX.4.4|9=66|35=0|34=9|49=FIXGATEWAY|52=20250705-19:31:50.909|56=FIX_SIMULATOR|10=233|
8=FIX.4.4|9=67|35=0|34=10|49=FIX_SIMULATOR|52=20250705-19:32:20.906|56=FIXGATEWAY|10=013|
8=FIX.4.4|9=67|35=0|34=10|49=FIXGATEWAY|52=20250705-19:32:20.909|56=FIX_SIMULATOR|10=016|
8=FIX.4.4|9=67|35=0|34=11|49=FIX_SIMULATOR|52=20250705-19:32:50.906|56=FIXGATEWAY|10=017|
8=FIX.4.4|9=67|35=0|34=11|49=FIXGATEWAY|52=20250705-19:32:50.908|56=FIX_SIMULATOR|10=019|
8=FIX.4.4|9=67|35=0|34=12|49=FIX_SIMULATOR|52=20250705-19:33:20.906|56=FIXGATEWAY|10=016|
8=FIX.4.4|9=67|35=0|34=12|49=FIXGATEWAY|52=20250705-19:33:20.908|56=FIX_SIMULATOR|10=018|
8=FIX.4.4|9=67|35=0|34=13|49=FIX_SIMULATOR|52=20250705-19:33:50.906|56=FIXGATEWAY|10=020|
8=FIX.4.4|9=67|35=0|34=13|49=FIXGATEWAY|52=20250705-19:33:50.909|56=FIX_SIMULATOR|10=023|
8=FIX.4.4|9=67|35=0|34=14|49=FIX_SIMULATOR|52=20250705-19:34:20.906|56=FIXGATEWAY|10=019|
8=FIX.4.4|9=67|35=0|34=14|49=FIXGATEWAY|52=20250705-19:34:20.909|56=FIX_SIMULATOR|10=022|
8=FIX.4.4|9=67|35=0|34=15|49=FIX_SIMULATOR|52=20250705-19:34:50.906|56=FIXGATEWAY|10=023|
8=FIX.4.4|9=67|35=0|34=15|49=FIXGATEWAY|52=20250705-19:34:50.908|56=FIX_SIMULATOR|10=025|
8=FIX.4.4|9=67|35=0|34=16|49=FIX_SIMULATOR|52=20250705-19:35:20.906|56=FIXGATEWAY|10=022|
8=FIX.4.4|9=67|35=0|34=16|49=FIXGATEWAY|52=20250705-19:35:20.908|56=FIX_SIMULATOR|10=024|
8=FIX.4.4|9=158|35=D|34=17|49=FIXGATEWAY|52=20250705-19:35:25.982|56=FIX_SIMULATOR|11=ALGO01_20250705-153525976_000006|21=1|38=200|40=1|54=1|55=TSLA|60=20250705-19:35:25.981|10=129|
8=FIX.4.4|9=234|35=8|34=17|49=FIX_SIMULATOR|52=20250705-19:35:25.991|56=FIXGATEWAY|6=0.99|11=ALGO01_20250705-153525976_000006|14=0|17=7deb3306-0f6a-4b7d-8e90-660b5f7e22f5|37=b2fb2125-4b61-4c23-a516-c02f666d41a4|38=200|39=0|54=1|55=TSLA|150=0|151=200|10=007|
8=FIX.4.4|9=165|35=D|34=18|49=FIXGATEWAY|52=20250705-19:35:26.005|56=FIX_SIMULATOR|11=ALGO01_20250705-153526001_000007|21=1|38=150|40=2|44=800|54=2|55=NVDA|60=20250705-19:35:26.004|10=140|
8=FIX.4.4|9=241|35=8|34=18|49=FIX_SIMULATOR|52=20250705-19:35:26.010|56=FIXGATEWAY|6=0.99|11=ALGO01_20250705-153526001_000007|14=0|17=5b7fa11d-bf5d-4dfe-8a4f-4017d6850a3e|37=27a9183c-dabd-470d-8a24-116a36cd700c|38=150|39=0|44=800|54=2|55=NVDA|150=0|151=150|10=013|
8=FIX.4.4|9=157|35=D|34=19|49=FIXGATEWAY|52=20250705-19:35:26.029|56=FIX_SIMULATOR|11=ALGO01_20250705-153526025_000008|21=1|38=80|40=1|54=2|55=AMZN|60=20250705-19:35:26.028|10=065|
8=FIX.4.4|9=232|35=8|34=19|49=FIX_SIMULATOR|52=20250705-19:35:26.037|56=FIXGATEWAY|6=0.99|11=ALGO01_20250705-153526025_000008|14=0|17=be8c2a43-c64e-4f54-9adb-88f7b429f964|37=63213b02-fcf3-4954-a5dd-a70d155f6918|38=80|39=0|54=2|55=AMZN|150=0|151=80|10=251|
8=FIX.4.4|9=165|35=D|34=20|49=FIXGATEWAY|52=20250705-19:35:26.054|56=FIX_SIMULATOR|11=ALGO01_20250705-153526049_000009|21=1|38=120|40=2|44=350|54=1|55=META|60=20250705-19:35:26.054|10=150|
8=FIX.4.4|9=241|35=8|34=20|49=FIX_SIMULATOR|52=20250705-19:35:26.059|56=FIXGATEWAY|6=0.99|11=ALGO01_20250705-153526049_000009|14=0|17=c2122621-df66-4ac3-b30f-fa496ea32c82|37=4cb012c8-331b-47b3-900f-f1b66771f694|38=120|39=0|44=350|54=1|55=META|150=0|151=120|10=249|
8=FIX.4.4|9=158|35=D|34=21|49=FIXGATEWAY|52=20250705-19:35:27.456|56=FIX_SIMULATOR|11=ALGO01_20250705-153527451_000010|21=1|38=200|40=1|54=1|55=TSLA|60=20250705-19:35:27.456|10=106|
8=FIX.4.4|9=234|35=8|34=21|49=FIX_SIMULATOR|52=20250705-19:35:27.461|56=FIXGATEWAY|6=0.99|11=ALGO01_20250705-153527451_000010|14=0|17=0a918d38-f53d-48ae-8bdd-d3ed7f82e533|37=fcd6bcc6-77f4-42e1-a00b-7e92dbb8b3bc|38=200|39=0|54=1|55=TSLA|150=0|151=200|10=184|
8=FIX.4.4|9=165|35=D|34=22|49=FIXGATEWAY|52=20250705-19:35:27.476|56=FIX_SIMULATOR|11=ALGO01_20250705-153527472_000011|21=1|38=150|40=2|44=800|54=2|55=NVDA|60=20250705-19:35:27.476|10=170|
8=FIX.4.4|9=241|35=8|34=22|49=FIX_SIMULATOR|52=20250705-19:35:27.486|56=FIXGATEWAY|6=0.99|11=ALGO01_20250705-153527472_000011|14=0|17=70194050-fa4f-43b6-97e9-404295860705|37=2dcc5513-0dd6-4c1b-91e4-7e849c639c41|38=150|39=0|44=800|54=2|55=NVDA|150=0|151=150|10=051|
8=FIX.4.4|9=157|35=D|34=23|49=FIXGATEWAY|52=20250705-19:35:27.499|56=FIX_SIMULATOR|11=ALGO01_20250705-153527495_000012|21=1|38=80|40=1|54=2|55=AMZN|60=20250705-19:35:27.498|10=091|
8=FIX.4.4|9=232|35=8|34=23|49=FIX_SIMULATOR|52=20250705-19:35:27.507|56=FIXGATEWAY|6=0.99|11=ALGO01_20250705-153527495_000012|14=0|17=24c56818-b3af-422e-8a92-a9723ae190d5|37=d723d96c-812f-4170-ba1c-731abe368cfc|38=80|39=0|54=2|55=AMZN|150=0|151=80|10=229|
8=FIX.4.4|9=165|35=D|34=24|49=FIXGATEWAY|52=20250705-19:35:27.524|56=FIX_SIMULATOR|11=ALGO01_20250705-153527520_000013|21=1|38=120|40=2|44=350|54=1|55=META|60=20250705-19:35:27.523|10=149|
8=FIX.4.4|9=241|35=8|34=24|49=FIX_SIMULATOR|52=20250705-19:35:27.529|56=FIXGATEWAY|6=0.99|11=ALGO01_20250705-153527520_000013|14=0|17=3f1095b4-cec9-40bf-b678-ea88a88c0cb3|37=75784a7d-ffda-4fb1-86be-2a4bd842ff32|38=120|39=0|44=350|54=1|55=META|150=0|151=120|10=154|
8=FIX.4.4|9=67|35=0|34=25|49=FIX_SIMULATOR|52=20250705-19:35:57.906|56=FIXGATEWAY|10=032|
8=FIX.4.4|9=67|35=0|34=25|49=FIXGATEWAY|52=20250705-19:35:57.909|56=FIX_SIMULATOR|10=035|
8=FIX.4.4|9=67|35=0|34=26|49=FIX_SIMULATOR|52=20250705-19:36:27.906|56=FIXGATEWAY|10=031|
8=FIX.4.4|9=67|35=0|34=26|49=FIXGATEWAY|52=20250705-19:36:27.908|56=FIX_SIMULATOR|10=033|
8=FIX.4.4|9=158|35=D|34=27|49=FIXGATEWAY|52=20250705-19:36:28.592|56=FIX_SIMULATOR|11=ALGO01_20250705-153628589_000014|21=1|38=200|40=1|54=1|55=TSLA|60=20250705-19:36:28.592|10=136|
8=FIX.4.4|9=234|35=8|34=27|49=FIX_SIMULATOR|52=20250705-19:36:28.597|56=FIXGATEWAY|6=0.99|11=ALGO01_20250705-153628589_000014|14=0|17=04b5f94a-bc3b-4f64-9c3b-df756c339172|37=866e1b71-a60f-4d1b-8167-0345a076c413|38=200|39=0|54=1|55=TSLA|150=0|151=200|10=193|
8=FIX.4.4|9=165|35=D|34=28|49=FIXGATEWAY|52=20250705-19:36:28.611|56=FIX_SIMULATOR|11=ALGO01_20250705-153628607_000015|21=1|38=150|40=2|44=800|54=2|55=NVDA|60=20250705-19:36:28.610|10=167|
8=FIX.4.4|9=241|35=8|34=28|49=FIX_SIMULATOR|52=20250705-19:36:28.618|56=FIXGATEWAY|6=0.99|11=ALGO01_20250705-153628607_000015|14=0|17=800506af-79d0-40ad-b452-968621862e1f|37=3616d7fd-c57c-46a3-9037-6278526804d3|38=150|39=0|44=800|54=2|55=NVDA|150=0|151=150|10=016|
8=FIX.4.4|9=157|35=D|34=29|49=FIXGATEWAY|52=20250705-19:36:28.633|56=FIX_SIMULATOR|11=ALGO01_20250705-153628629_000016|21=1|38=80|40=1|54=2|55=AMZN|60=20250705-19:36:28.633|10=087|
8=FIX.4.4|9=232|35=8|34=29|49=FIX_SIMULATOR|52=20250705-19:36:28.640|56=FIXGATEWAY|6=0.99|11=ALGO01_20250705-153628629_000016|14=0|17=20a798c5-ea1b-4238-8532-0dfa567c54a6|37=430deee0-ebf5-4b37-8a77-eb83221b9e90|38=80|39=0|54=2|55=AMZN|150=0|151=80|10=247|
8=FIX.4.4|9=165|35=D|34=30|49=FIXGATEWAY|52=20250705-19:36:28.656|56=FIX_SIMULATOR|11=ALGO01_20250705-153628652_000017|21=1|38=120|40=2|44=350|54=1|55=META|60=20250705-19:36:28.655|10=174|
8=FIX.4.4|9=241|35=8|34=30|49=FIX_SIMULATOR|52=20250705-19:36:28.662|56=FIXGATEWAY|6=0.99|11=ALGO01_20250705-153628652_000017|14=0|17=6465f965-0125-47c2-82fc-a0ef964e1ee1|37=08a21a26-4bf9-4ad1-b468-fa6325752873|38=120|39=0|44=350|54=1|55=META|150=0|151=120|10=187|
8=FIX.4.4|9=158|35=D|34=31|49=FIXGATEWAY|52=20250705-19:36:28.789|56=FIX_SIMULATOR|11=ALGO01_20250705-153628784_000018|21=1|38=200|40=1|54=1|55=TSLA|60=20250705-19:36:28.789|10=148|
8=FIX.4.4|9=234|35=8|34=31|49=FIX_SIMULATOR|52=20250705-19:36:28.794|56=FIXGATEWAY|6=0.99|11=ALGO01_20250705-153628784_000018|14=0|17=4e288c71-525a-47f4-8127-f98c5f0632f6|37=e7e0c02f-a1c8-411f-89f2-7913d5225c6f|38=200|39=0|54=1|55=TSLA|150=0|151=200|10=168|
8=FIX.4.4|9=165|35=D|34=32|49=FIXGATEWAY|52=20250705-19:36:28.809|56=FIX_SIMULATOR|11=ALGO01_20250705-153628805_000019|21=1|38=150|40=2|44=800|54=2|55=NVDA|60=20250705-19:36:28.809|10=185|
8=FIX.4.4|9=241|35=8|34=32|49=FIX_SIMULATOR|52=20250705-19:36:28.820|56=FIXGATEWAY|6=0.99|11=ALGO01_20250705-153628805_000019|14=0|17=0c28bfe7-5faf-4ccb-abd2-899a83f30bcf|37=d89b7773-cd1b-4175-9909-47d7b997b6aa|38=150|39=0|44=800|54=2|55=NVDA|150=0|151=150|10=141|
8=FIX.4.4|9=157|35=D|34=33|49=FIXGATEWAY|52=20250705-19:36:28.838|56=FIX_SIMULATOR|11=ALGO01_20250705-153628832_000020|21=1|38=80|40=1|54=2|55=AMZN|60=20250705-19:36:28.838|10=087|
8=FIX.4.4|9=232|35=8|34=33|49=FIX_SIMULATOR|52=20250705-19:36:28.843|56=FIXGATEWAY|6=0.99|11=ALGO01_20250705-153628832_000020|14=0|17=6e238ea3-ebab-4dec-bfd0-806b4a2b0458|37=e35c8846-a099-4b7e-87b5-4941217df09e|38=80|39=0|54=2|55=AMZN|150=0|151=80|10=086|
8=FIX.4.4|9=165|35=D|34=34|49=FIXGATEWAY|52=20250705-19:36:28.862|56=FIX_SIMULATOR|11=ALGO01_20250705-153628859_000021|21=1|38=120|40=2|44=350|54=1|55=META|60=20250705-19:36:28.862|10=181|
8=FIX.4.4|9=241|35=8|34=34|49=FIX_SIMULATOR|52=20250705-19:36:28.868|56=FIXGATEWAY|6=0.99|11=ALGO01_20250705-153628859_000021|14=0|17=48693fd9-54d9-4f8c-a6ec-04f353f4aa72|37=b9c691a1-05ef-4cb9-834f-a71c6ca66e6e|38=120|39=0|44=350|54=1|55=META|150=0|151=120|10=048|
8=FIX.4.4|9=158|35=D|34=35|49=FIXGATEWAY|52=20250705-19:36:29.008|56=FIX_SIMULATOR|11=ALGO01_20250705-153629001_000022|21=1|38=200|40=1|54=1|55=TSLA|60=20250705-19:36:29.008|10=100|
8=FIX.4.4|9=234|35=8|34=35|49=FIX_SIMULATOR|52=20250705-19:36:29.021|56=FIXGATEWAY|6=0.99|11=ALGO01_20250705-153629001_000022|14=0|17=1c468561-2e95-4ae2-ba77-1e785bb67419|37=a967ccec-8e87-4cb2-af32-89f79af9a486|38=200|39=0|54=1|55=TSLA|150=0|151=200|10=092|
8=FIX.4.4|9=165|35=D|34=36|49=FIXGATEWAY|52=20250705-19:36:29.038|56=FIX_SIMULATOR|11=ALGO01_20250705-153629035_000023|21=1|38=150|40=2|44=800|54=2|55=NVDA|60=20250705-19:36:29.037|10=169|
8=FIX.4.4|9=241|35=8|34=36|49=FIX_SIMULATOR|52=20250705-19:36:29.043|56=FIXGATEWAY|6=0.99|11=ALGO01_20250705-153629035_000023|14=0|17=009a2c39-c2c2-4808-aeb4-3b62c5ffa824|37=ba91178c-d63f-41e3-b8f4-75056bf2bc61|38=150|39=0|44=800|54=2|55=NVDA|150=0|151=150|10=154|
8=FIX.4.4|9=157|35=D|34=37|49=FIXGATEWAY|52=20250705-19:36:29.060|56=FIX_SIMULATOR|11=ALGO01_20250705-153629057_000024|21=1|38=80|40=1|54=2|55=AMZN|60=20250705-19:36:29.060|10=071|
8=FIX.4.4|9=232|35=8|34=37|49=FIX_SIMULATOR|52=20250705-19:36:29.064|56=FIXGATEWAY|6=0.99|11=ALGO01_20250705-153629057_000024|14=0|17=6e61502b-33f0-4660-9710-9b76a670e7dd|37=cb28fac2-3e3c-4cf0-aa91-e671bb04fb4f|38=80|39=0|54=2|55=AMZN|150=0|151=80|10=065|
8=FIX.4.4|9=165|35=D|34=38|49=FIXGATEWAY|52=20250705-19:36:29.077|56=FIX_SIMULATOR|11=ALGO01_20250705-153629075_000025|21=1|38=120|40=2|44=350|54=1|55=META|60=20250705-19:36:29.077|10=178|
8=FIX.4.4|9=241|35=8|34=38|49=FIX_SIMULATOR|52=20250705-19:36:29.082|56=FIXGATEWAY|6=0.99|11=ALGO01_20250705-153629075_000025|14=0|17=4575d7f1-411c-44d8-b63d-e8d9b46a2d48|37=2de60926-c07f-4f75-b465-bcb7bdd80b7a|38=120|39=0|44=350|54=1|55=META|150=0|151=120|10=229|
8=FIX.4.4|9=158|35=D|34=39|49=FIXGATEWAY|52=20250705-19:36:29.206|56=FIX_SIMULATOR|11=ALGO01_20250705-153629201_000026|21=1|38=200|40=1|54=1|55=TSLA|60=20250705-19:36:29.205|10=109|
8=FIX.4.4|9=234|35=8|34=39|49=FIX_SIMULATOR|52=20250705-19:36:29.219|56=FIXGATEWAY|6=0.99|11=ALGO01_20250705-153629201_000026|14=0|17=4bdfccab-f7fd-4dee-9211-43c8a86c0dae|37=e15d707a-9350-41c0-9c48-70f64c8e986a|38=200|39=0|54=1|55=TSLA|150=0|151=200|10=059|
8=FIX.4.4|9=165|35=D|34=40|49=FIXGATEWAY|52=20250705-19:36:29.231|56=FIX_SIMULATOR|11=ALGO01_20250705-153629228_000027|21=1|38=150|40=2|44=800|54=2|55=NVDA|60=20250705-19:36:29.231|10=163|
8=FIX.4.4|9=241|35=8|34=40|49=FIX_SIMULATOR|52=20250705-19:36:29.237|56=FIXGATEWAY|6=0.99|11=ALGO01_20250705-153629228_000027|14=0|17=cdfa85ad-aed5-4225-b7f4-5b2ade57453b|37=00efa09a-489d-47a1-a561-e3bc609c48f7|38=150|39=0|44=800|54=2|55=NVDA|150=0|151=150|10=105|
8=FIX.4.4|9=157|35=D|34=41|49=FIXGATEWAY|52=20250705-19:36:29.258|56=FIX_SIMULATOR|11=ALGO01_20250705-153629255_000028|21=1|38=80|40=1|54=2|55=AMZN|60=20250705-19:36:29.258|10=088|
8=FIX.4.4|9=232|35=8|34=41|49=FIX_SIMULATOR|52=20250705-19:36:29.263|56=FIXGATEWAY|6=0.99|11=ALGO01_20250705-153629255_000028|14=0|17=028e7921-f96c-4222-9130-60bced1e0e78|37=3ff2b922-a986-4d83-a3b5-d97cdeb90936|38=80|39=0|54=2|55=AMZN|150=0|151=80|10=162|
8=FIX.4.4|9=165|35=D|34=42|49=FIXGATEWAY|52=20250705-19:36:29.276|56=FIX_SIMULATOR|11=ALGO01_20250705-153629273_000029|21=1|38=120|40=2|44=350|54=1|55=META|60=20250705-19:36:29.276|10=179|
8=FIX.4.4|9=241|35=8|34=42|49=FIX_SIMULATOR|52=20250705-19:36:29.285|56=FIXGATEWAY|6=0.99|11=ALGO01_20250705-153629273_000029|14=0|17=ad7543da-9841-46c4-a844-3f4b0d15f4df|37=d5a4d727-f8e6-4a9a-a755-16b63cce71d9|38=120|39=0|44=350|54=1|55=META|150=0|151=120|10=234|
8=FIX.4.4|9=158|35=D|34=43|49=FIXGATEWAY|52=20250705-19:36:29.424|56=FIX_SIMULATOR|11=ALGO01_20250705-153629418_000030|21=1|38=200|40=1|54=1|55=TSLA|60=20250705-19:36:29.423|10=113|
8=FIX.4.4|9=234|35=8|34=43|49=FIX_SIMULATOR|52=20250705-19:36:29.432|56=FIXGATEWAY|6=0.99|11=ALGO01_20250705-153629418_000030|14=0|17=02889ef2-4a76-4a7a-b902-a496cc37625a|37=b0fd9fb4-915e-403d-a3ca-ffbc05bbecfa|38=200|39=0|54=1|55=TSLA|150=0|151=200|10=132|
8=FIX.4.4|9=165|35=D|34=44|49=FIXGATEWAY|52=20250705-19:36:29.452|56=FIX_SIMULATOR|11=ALGO01_20250705-153629448_000031|21=1|38=150|40=2|44=800|54=2|55=NVDA|60=20250705-19:36:29.452|10=176|
8=FIX.4.4|9=241|35=8|34=44|49=FIX_SIMULATOR|52=20250705-19:36:29.457|56=FIXGATEWAY|6=0.99|11=ALGO01_20250705-153629448_000031|14=0|17=287b094b-d4a4-4b0e-8458-733fbc6b477c|37=00c8123e-62a5-4d52-b2e7-f29961c06632|38=150|39=0|44=800|54=2|55=NVDA|150=0|151=150|10=195|
8=FIX.4.4|9=157|35=D|34=45|49=FIXGATEWAY|52=20250705-19:36:29.469|56=FIX_SIMULATOR|11=ALGO01_20250705-153629466_000032|21=1|38=80|40=1|54=2|55=AMZN|60=20250705-19:36:29.469|10=099|
8=FIX.4.4|9=232|35=8|34=45|49=FIX_SIMULATOR|52=20250705-19:36:29.481|56=FIXGATEWAY|6=0.99|11=ALGO01_20250705-153629466_000032|14=0|17=d5e03bb8-586d-4626-b9cc-638ae72fbe73|37=41cd5c19-82af-4d50-bd90-1f87e1f13167|38=80|39=0|54=2|55=AMZN|150=0|151=80|10=050|
8=FIX.4.4|9=165|35=D|34=46|49=FIXGATEWAY|52=20250705-19:36:29.496|56=FIX_SIMULATOR|11=ALGO01_20250705-153629493_000033|21=1|38=120|40=2|44=350|54=1|55=META|60=20250705-19:36:29.496|10=190|
8=FIX.4.4|9=241|35=8|34=46|49=FIX_SIMULATOR|52=20250705-19:36:29.501|56=FIXGATEWAY|6=0.99|11=ALGO01_20250705-153629493_000033|14=0|17=3b1eea79-f62c-4be5-a7df-b32876a16e92|37=dd7e1dc1-1be0-4929-ae9f-f78974713ca2|38=120|39=0|44=350|54=1|55=META|150=0|151=120|10=072|
8=FIX.4.4|9=158|35=D|34=47|49=FIXGATEWAY|52=20250705-19:36:29.641|56=FIX_SIMULATOR|11=ALGO01_20250705-153629638_000034|21=1|38=200|40=1|54=1|55=TSLA|60=20250705-19:36:29.641|10=128|
8=FIX.4.4|9=234|35=8|34=47|49=FIX_SIMULATOR|52=20250705-19:36:29.652|56=FIXGATEWAY|6=0.99|11=ALGO01_20250705-153629638_000034|14=0|17=24186e97-8000-4b24-91b6-50818e0ea66e|37=be3d67e5-f553-4a4e-97d4-d0be60f6819f|38=200|39=0|54=1|55=TSLA|150=0|151=200|10=210|
8=FIX.4.4|9=165|35=D|34=48|49=FIXGATEWAY|52=20250705-19:36:29.666|56=FIX_SIMULATOR|11=ALGO01_20250705-153629664_000035|21=1|38=150|40=2|44=800|54=2|55=NVDA|60=20250705-19:36:29.666|10=198|
8=FIX.4.4|9=241|35=8|34=48|49=FIX_SIMULATOR|52=20250705-19:36:29.671|56=FIXGATEWAY|6=0.99|11=ALGO01_20250705-153629664_000035|14=0|17=1397df41-73b1-4650-8565-47f063200eba|37=2c7a416f-ed26-4ff5-a957-0f9793832074|38=150|39=0|44=800|54=2|55=NVDA|150=0|151=150|10=072|
8=FIX.4.4|9=157|35=D|34=49|49=FIXGATEWAY|52=20250705-19:36:29.687|56=FIX_SIMULATOR|11=ALGO01_20250705-153629683_000036|21=1|38=80|40=1|54=2|55=AMZN|60=20250705-19:36:29.687|10=112|
8=FIX.4.4|9=232|35=8|34=49|49=FIX_SIMULATOR|52=20250705-19:36:29.697|56=FIXGATEWAY|6=0.99|11=ALGO01_20250705-153629683_000036|14=0|17=5b781c79-99ca-4c04-a605-da2948ba90ab|37=1b954c5f-24cb-4cab-a995-b9a05f4e3fd4|38=80|39=0|54=2|55=AMZN|150=0|151=80|10=202|
8=FIX.4.4|9=165|35=D|34=50|49=FIXGATEWAY|52=20250705-19:36:29.713|56=FIX_SIMULATOR|11=ALGO01_20250705-153629710_000037|21=1|38=120|40=2|44=350|54=1|55=META|60=20250705-19:36:29.713|10=165|
8=FIX.4.4|9=241|35=8|34=50|49=FIX_SIMULATOR|52=20250705-19:36:29.721|56=FIXGATEWAY|6=0.99|11=ALGO01_20250705-153629710_000037|14=0|17=a4fc9bc1-6af9-4d01-a71d-f7db0e80b528|37=5ab28692-25fc-464b-a2c4-b58bcc56a7d5|38=120|39=0|44=350|54=1|55=META|150=0|151=120|10=089|
8=FIX.4.4|9=158|35=D|34=51|49=FIXGATEWAY|52=20250705-19:36:29.910|56=FIX_SIMULATOR|11=ALGO01_20250705-153629905_000038|21=1|38=200|40=1|54=1|55=TSLA|60=20250705-19:36:29.910|10=122|
8=FIX.4.4|9=234|35=8|34=51|49=FIX_SIMULATOR|52=20250705-19:36:29.917|56=FIXGATEWAY|6=0.99|11=ALGO01_20250705-153629905_000038|14=0|17=666a0c4e-b98f-4222-800a-249b9378ba28|37=29ea155b-ec6c-40ef-9c5f-68d2ce3852cf|38=200|39=0|54=1|55=TSLA|150=0|151=200|10=141|
8=FIX.4.4|9=165|35=D|34=52|49=FIXGATEWAY|52=20250705-19:36:29.935|56=FIX_SIMULATOR|11=ALGO01_20250705-153629932_000039|21=1|38=150|40=2|44=800|54=2|55=NVDA|60=20250705-19:36:29.935|10=193|
8=FIX.4.4|9=241|35=8|34=52|49=FIX_SIMULATOR|52=20250705-19:36:29.941|56=FIXGATEWAY|6=0.99|11=ALGO01_20250705-153629932_000039|14=0|17=9c0c9ed7-3b55-4fc5-9109-9b7589921d9d|37=bcf0c252-af3d-41ce-9904-65ac308edf5e|38=150|39=0|44=800|54=2|55=NVDA|150=0|151=150|10=002|
8=FIX.4.4|9=157|35=D|34=53|49=FIXGATEWAY|52=20250705-19:36:29.965|56=FIX_SIMULATOR|11=ALGO01_20250705-153629962_000040|21=1|38=80|40=1|54=2|55=AMZN|60=20250705-19:36:29.965|10=100|
8=FIX.4.4|9=232|35=8|34=53|49=FIX_SIMULATOR|52=20250705-19:36:29.975|56=FIXGATEWAY|6=0.99|11=ALGO01_20250705-153629962_000040|14=0|17=69d4170d-1dc9-4f6d-b543-bc98fe3e0275|37=f5b0d680-d659-45de-9858-7e2f1df21cf8|38=80|39=0|54=2|55=AMZN|150=0|151=80|10=083|
8=FIX.4.4|9=165|35=D|34=54|49=FIXGATEWAY|52=20250705-19:36:29.998|56=FIX_SIMULATOR|11=ALGO01_20250705-153629992_000041|21=1|38=120|40=2|44=350|54=1|55=META|60=20250705-19:36:29.997|10=205|
8=FIX.4.4|9=241|35=8|34=54|49=FIX_SIMULATOR|52=20250705-19:36:30.009|56=FIXGATEWAY|6=0.99|11=ALGO01_20250705-153629992_000041|14=0|17=e817158c-4d62-4082-8bfe-9f2a47f8fdf3|37=cda645f0-e0a5-4636-93f7-12fca87b4f77|38=120|39=0|44=350|54=1|55=META|150=0|151=120|10=194|
8=FIX.4.4|9=158|35=D|34=55|49=FIXGATEWAY|52=20250705-19:36:30.143|56=FIX_SIMULATOR|11=ALGO01_20250705-153630140_000042|21=1|38=200|40=1|54=1|55=TSLA|60=20250705-19:36:30.143|10=084|
8=FIX.4.4|9=234|35=8|34=55|49=FIX_SIMULATOR|52=20250705-19:36:30.156|56=FIXGATEWAY|6=0.99|11=ALGO01_20250705-153630140_000042|14=0|17=ab9d3c84-afe1-4369-a2a7-9ad6c25135b9|37=2eb78dfa-c1bb-4f55-8a49-6c064b165b69|38=200|39=0|54=1|55=TSLA|150=0|151=200|10=199|
8=FIX.4.4|9=165|35=D|34=56|49=FIXGATEWAY|52=20250705-19:36:30.168|56=FIX_SIMULATOR|11=ALGO01_20250705-153630165_000043|21=1|38=150|40=2|44=800|54=2|55=NVDA|60=20250705-19:36:30.168|10=162|
8=FIX.4.4|9=241|35=8|34=56|49=FIX_SIMULATOR|52=20250705-19:36:30.185|56=FIXGATEWAY|6=0.99|11=ALGO01_20250705-153630165_000043|14=0|17=3e35aa80-fef6-4407-a2a5-024480c49eed|37=e484dd37-c702-424d-9b8b-b0cceabd2b36|38=150|39=0|44=800|54=2|55=NVDA|150=0|151=150|10=035|
8=FIX.4.4|9=157|35=D|34=57|49=FIXGATEWAY|52=20250705-19:36:30.191|56=FIX_SIMULATOR|11=ALGO01_20250705-153630186_000044|21=1|38=80|40=1|54=2|55=AMZN|60=20250705-19:36:30.191|10=064|
8=FIX.4.4|9=232|35=8|34=57|49=FIX_SIMULATOR|52=20250705-19:36:30.200|56=FIXGATEWAY|6=0.99|11=ALGO01_20250705-153630186_000044|14=0|17=5a5ec822-453a-430f-a6d5-0e1adcd83a76|37=3ae70aea-5922-4b2c-bc0c-3f32756ebce3|38=80|39=0|54=2|55=AMZN|150=0|151=80|10=177|
8=FIX.4.4|9=165|35=D|34=58|49=FIXGATEWAY|52=20250705-19:36:30.210|56=FIX_SIMULATOR|11=ALGO01_20250705-153630208_000045|21=1|38=120|40=2|44=350|54=1|55=META|60=20250705-19:36:30.209|10=142|
8=FIX.4.4|9=241|35=8|34=58|49=FIX_SIMULATOR|52=20250705-19:36:30.214|56=FIXGATEWAY|6=0.99|11=ALGO01_20250705-153630208_000045|14=0|17=449390c1-1751-45b7-83d9-19016e8ed192|37=e8c71770-7443-4485-999e-2e8b5e91ae0f|38=120|39=0|44=350|54=1|55=META|150=0|151=120|10=015|
8=FIX.4.4|9=158|35=D|34=59|49=FIXGATEWAY|52=20250705-19:36:30.382|56=FIX_SIMULATOR|11=ALGO01_20250705-153630379_000046|21=1|38=200|40=1|54=1|55=TSLA|60=20250705-19:36:30.382|10=116|
8=FIX.4.4|9=234|35=8|34=59|49=FIX_SIMULATOR|52=20250705-19:36:30.392|56=FIXGATEWAY|6=0.99|11=ALGO01_20250705-153630379_000046|14=0|17=3dc16a90-ce20-4191-a160-7397babf2c31|37=98759553-c07f-42b4-b427-3514e2906eed|38=200|39=0|54=1|55=TSLA|150=0|151=200|10=127|
8=FIX.4.4|9=165|35=D|34=60|49=FIXGATEWAY|52=20250705-19:36:30.409|56=FIX_SIMULATOR|11=ALGO01_20250705-153630405_000047|21=1|38=150|40=2|44=800|54=2|55=NVDA|60=20250705-19:36:30.409|10=154|
8=FIX.4.4|9=241|35=8|34=60|49=FIX_SIMULATOR|52=20250705-19:36:30.415|56=FIXGATEWAY|6=0.99|11=ALGO01_20250705-153630405_000047|14=0|17=3a6c9776-a37c-41f8-b663-2f3cb4927f10|37=4551d65b-09f3-4b17-8053-fa2c100b176a|38=150|39=0|44=800|54=2|55=NVDA|150=0|151=150|10=162|
8=FIX.4.4|9=157|35=D|34=61|49=FIXGATEWAY|52=20250705-19:36:30.429|56=FIX_SIMULATOR|11=ALGO01_20250705-153630424_000048|21=1|38=80|40=1|54=2|55=AMZN|60=20250705-19:36:30.428|10=065|
8=FIX.4.4|9=232|35=8|34=61|49=FIX_SIMULATOR|52=20250705-19:36:30.438|56=FIXGATEWAY|6=0.99|11=ALGO01_20250705-153630424_000048|14=0|17=b7f0ee17-379a-45c2-982b-129234ffac5e|37=99dd6ce2-dac0-434a-b28f-9ac936b86627|38=80|39=0|54=2|55=AMZN|150=0|151=80|10=091|
8=FIX.4.4|9=165|35=D|34=62|49=FIXGATEWAY|52=20250705-19:36:30.454|56=FIX_SIMULATOR|11=ALGO01_20250705-153630451_000049|21=1|38=120|40=2|44=350|54=1|55=META|60=20250705-19:36:30.454|10=153|
8=FIX.4.4|9=241|35=8|34=62|49=FIX_SIMULATOR|52=20250705-19:36:30.468|56=FIXGATEWAY|6=0.99|11=ALGO01_20250705-153630451_000049|14=0|17=7fad7ca2-5bcf-4dec-89f8-dc0da5e6b95d|37=6fb99d0d-6402-47f0-b4b8-e74fd86729dc|38=120|39=0|44=350|54=1|55=META|150=0|151=120|10=019|
8=FIX.4.4|9=67|35=5|34=63|49=FIX_SIMULATOR|52=20250705-19:36:56.906|56=FIXGATEWAY|10=039|
